:20000000A03A01205538010039FB021039FB021039FB021039FB021039FB021039FB0210B3
:1C00200039FB021039FB021039FB021039FB021039FB021039FB021011FB021002
:04003C000BF0A2BA69
:20004000483F0020F8390020B43E0020A43A0020380F0020B43C0020503F0020443D0020D1
:20006000C43E0020983B00208C1B0000931F00002E200000AF1F0000A11F0000D43E002004
:20008000E0110020C0110020B0110020B4110020BC110020B8110020A8110020AC1100200C
:2000A000A4110020E43E00206C3A00207C3E0020C43B002026170000B416000098170000B4
:2000C0000A1800007C1800004C1E00000C20000000200000F73F0020143F0020DC0F0020E0
:2000E000603D0020D00E0020EC3F0020ED3F0020383B0020903E002070060020F81100206E
:200100002C160000DB130000741A00009C030020641F00008C320020E03F0020DC3F002087
:20012000D8110020D4110020B83F00204C1B0000143E00207834002040390020C81900007B
:2001400074100020743F00209C3F002088200000D4200000800D0020F42D0020D0110020A2
:20016000014A031049480310D5490310154703109DFA00005D49031081470310A1460310B8
:200180009548031045450310254A031021440310ED47031099490310E148031021490310E3
:2001A0005553031089520310CD520310655003108D4E03105DC400006DDE000091FF0000B2
:2001C000AD64000059510310ED5003106DBA0000CD4B03102952031011530310A955031099
:2001E0007555031069530310DD55031035550310EDB6000021540310855C03100D560310DC
:200200004D5D0310A9640310B55B03106D570310E5610310095E0310C5580310856003100C
:2002200071610310B16203109963031055630310FD600310B15E031029D80000D55A031004
:20024000D559031009630310D963031019640310555F0310C56403104D6203107164031052
:200260008D64031055640310E16403102975031079720310A16B0310F57203109D740310EA
:20028000797403102D74031061730310FD7303105574031015750310D96C0310FD740310EB
:2002A000619B0000E17403103D75031079700310F9640310CD6803102D710310C174031068
:2002C000F56E0310B973031029670310056E0310C56F0310B9CE0000A1770310797D03103E
:2002E0003D7E031049750310157E0310357D031099760310997C0310257B031071780310FB
:20030000B57D0310ED7C0310857E03102D790310B97A0310917B0310B1790310ED7B031030
:20032000E97D0310617E0310357A0310D57E0310457C0310A57E0310BD7E0310F9A5000034
:20034000D9800310E97E031049830310898403108D8103107D820310E58403102B84031047
:20036000C5830310918703106188031045880310F1850310B18803107D880310C9880310CA
:200380001D870310A186031001850310E188031099880310F9870310CDAA0000359C031035
:2003A000819D0310E99A0310359B0310C19B0310419A0310F18803101D8C0310618F0310EB
:2003C000F1940310919E0310C19E03103D9E0310699E0310259E0310619D03100D9E031024
:2003E000819B0310ED93031055990310C9970310D9980310BD950310959C0310C19D031029
:20040000A59E03107D9E0310C99103106DE20000699C0310DD9D031095900310FD9B031014
:20042000CD990310158E0310019D0310E19C0310219D0310419D0310BD9C0310F59D031079
:20044000A19D031055980310E1920310999A0310B99E0310559E031011330100A34F0100D7
:2004600039A203104946010069A1031075A20310C59E0310B9A10310F9A1031015A103105E
:200480009DA20310E55C0100830B01000D2A0100D54F0100655B010039D9000031A903101C
:2004A000ADA20310158C0000B9A8031099A5031099AB000039A803106DA9031085B50000D9
:2004C0006DAC031099B1031009AF031059B1031001B103109DA90310E1DC000035CB0000D0
:2004E000B535010025C80000FD5F00006517010065C9000025630000499D0000A1A200006C
:20050000C9A60000F1B9031075BA031081BB0310E52C010005D6000031FF00001DB1000033
:20052000D1220100250A0100793B01008D030100A5310100D53F01009D530100E903010087
:200540004114010057620100D931010065FB00000D510100D9F70000511F01002551010009
:20056000E5290000A9670000615E000071850000E9C6031099570000399E0000C9570100FE
:2005800011280100894F0100811C01002B6101005F560100B95701003F620100F5130100AB
:2005A000CDEF0000F1EA0000636C6173733100636C61737332003C202020202020434F4E39
:2005C0004649475552452020202020203E003C2020202020205345542050414E49442020A7
:2005E000202020203E003C20202020534554204348414E204D41534B202020203E003C20F5
:2006000020202020534554204E574B204B455920202020203E003C202020202020424143B5
:200620004B2020202020203E003C2020204E4554574F524B20414354494F4E532020203EDC
:20064000003C20202020202020464F524D204E574B2020202020203E003C20202020202040
:20066000204F50454E204E574B2020202020203E003C20202020202020434C4F5345204E1A
:20068000574B20202020203E003C2020202020202020204150502020202020202020203E3F
:2006A000003C202020202053454C4543542053454E534F522020203E003C2053455420524C
:2006C00045504F525420494E54455256414C203E003C202020202053454E4420544F474756
:2006E0004C4520202020203E003C2053454E44204449534153534F43494154494F4E203E6A
:20070000003C202053454E442054595045205245515545535420203E002054492B45492074
:20072000436F6C6C6563746F7220003C20202020202048454C502020202020203E00537408
:20074000617475730044657669636520537461747573004E756D626572206F66204A6F6948
:200760006E6564204465766963657300454920496E666572656E636520526573756C740083
:20078000454920446174610057616974696E672E2E2E004469736173736F636961746520D8
:2007A00053656E736F72204572726F72202D20416464723D307825303478206E6F742066D0
:2007C0006F756E64004661696C6564202D2030782530347820004A6F696E6564202D2030F2
:2007E0007825303478200052656A6F696E6564202D20307825303478200025780021526585
:2008000073706F6E64696E67202D203078253034782000436F6E666967527370202D203018
:2008200078253034782000414444523A2532782532782532782532782532782532782C20A4
:20084000555549443A3078253034782C204D616E4661633A3078253034782C204C656E6757
:2008600074683A25642C20446174613A3078253032780053656E736F72202D2041646472D0
:200880003D3078253034782C2054656D703D25642C20525353493D256400257300446973BF
:2008A0006173736F63696174652053656E736F72202D20416464723D3078253034780063B1
:2008C000633133313000636331333530006363323634307232006363313331327231006398
:2008E000633133353272310063633133353270310063633133353270320063633133353231
:2009000070340063633236343272310063633236353272310063633236353272620067658F
:200920006E657269630053656E736F72202D204465766963653D25732C20446576696365FE
:2009400046616D696C7949443D25692C204465766963655479706549443D2569004F727016
:2009600068616E65642053656E736F722052652D4A6F696E6564202D20416464723D3078B3
:2009800025303478004E42434E005374617274656400526573746172746564004F66660095
:2009A0004F6E0025732D2D4D6F64653D25732C20416464723D3078253034782C2050616E16
:2009C00049643D3078253034782C2043683D25642C205065726D69744A6F696E3D25732085
:2009E0000025732D2D4D6F64653D25732C20416464723D3078253034782C2050616E4964E6
:200A00003D3078253034782C2043683D46482C205065726D69744A6F696E3D257320005399
:200A200074617274696E672E2E2E00546F67676C654C4544526571756573742053656E7459
:200A4000202D20416464723D30782530347800202020203078464646462028616E792900CF
:200A600020202020307800202020202050414E20494400200020202020204348414E204DDB
:200A800041534B00496E76616C696420696E7075742E204F6E6C7920757064617465642049
:200AA0007769746820737570706F72746564206368616E6E656C73000020202020204445DF
:200AC0004641554C54204E574B204B455900202053454C45435445442053454E534F5200FE
:200AE000202020200020205245504F525420494E54455256414C000204320020343A0020EF
:200B000000110020403F0020940A00200A340020A01500002C3F00207831002090330020FD
:200B2000B8380020A81000209C110020802000000908031001010310890903105D0303100F
:200B40000105031089060310D1080310210A0310810B0310810A0310110B0310510B0310D5
:200B6000D10A031029100310610D0310890E0310050E0310B50F0310D10B031051100310B0
:200B80003D10031065100310FD0E0310ED0F0310B50C0310650F0310111003106910031025
:200BA00009120310F5120310AD110310291103105D120310B1120310192503105527031097
:200BC0008D240310F12603100528031089260310CD23031059280310ED1F03102513031024
:200BE0000D210310911D0310B12703100D2203109925031019260310A91B0310CF280310C2
:200C00009528031039290310052903106D29031099160310C91E03107D1903100D230310FD
:200C2000C92C03101D2C0310292D0310B52B0310F52C03109D290310CD2A0310452B03105A
:200C4000472D0310112D0310412D0310752C031029340310C138031071360310A12E03106F
:200C600081330310611A0100A93A03103D3A0310C534031011380310753A03104D2D0310FA
:200C800009320310E12F031015390310F939031019310310B1370310F5350310B1390310AB
:200CA0005D350310C5320310E5360310693903104D370310253D0310413D0310F53C0310C1
:200CC000C93A0310A53C03109D3D0310593D031019430310CD3D0310A14303104D40031051
:200CE000093F031061420310CD400310C9430310E5430310C93F031011440310FD43031093
:200D00001F440310A942031019420310E1420310C14103107543031049430310494103109F
:200D20001B440310AD0B0310B3610100B7610100C3610100B75D0100C7610100BF610100C4
:200D4000BB610100CF610100CB610100783F00206D400021D74000219940002105410021DA
:200D6000114100211D410021354100214D410021074C657900F009F861796940490703D56E
:200D80000121044A8903116070BD70B50249084780030021081104402D59000000F019F872
:200DA000E1B26C290BD0042801D0062807D110490978C90703D12178090700D402200D49BA
:200DC0000A780C21114202D00B4980220A6003B0F0BDF0B583B009490847002008498847C6
:200DE00004480178402291430170064800470000C80000213301002100E200E04116030098
:200E0000F7630000231B030000F082F800480047577F000000F082F8004800471B880000CC
:200E2000094B1A780824A243002800D022431A70004A1047838E000003490878000701D47A
:200E40000248004770470000800300215F7E0000044A282090470448012141600348044AB4
:200E6000416010474F42000000500440006004408542000070B51F4D2878C4B21E48804716
:200E80002878032834D1032C32D01C488068400DC2071A48014660318030002A03D01F24C5
:200EA0000C57458802E01E240C570588002C1FD01348154A4169007941434810114949690E
:200EC000401810494039497F904740054015694288420DDBA8420BDC0C4B996988B20246A6
:200EE000090C624309045212801880B20843986170BD0000E4020021794100002800002182
:200F00008003002100030021CB81000040400440806B0C490007000F48717047094A0A498D
:200F200018235079CB56497EC018814201DD084602E00F2800DD0F20D1890909090101431F
:200F4000D1817047E0020021880000213C2020202020204241434B2020202020203E003C95
:200F600020202020202048454C502020202020203E001B5B3F32356C1B5B333B2564481B32
:200F80005B314A1B5B48001B5B41001B5B42001B5B43001B5B44002D2D001B5B3F32356CF9
:200FA0001B5B481B5B25643B30481B5B324B256300202563001B5B33316D257325631B5BC1
:200FC000306D00507265737320456E74657220666F722048656C70005B4172726F77204B68
:200FE0006579735D204E61766967617465204D656E7573207C205B456E7465725D20506585
:2010000072666F726D20416374696F6E2C20456E746572205375626D656E75002D2D2D2D2F
:201020002D2D2D2D2D2D2D2D2D2D2D2D2D2D2D2D2D2D2D2D2D2D2D2D7C2D2D2D2D2D2D2DC1
:201040002D2D2D2D2D2D2D2D2D2D2D2D2D2D2D2D2D2D2D2D2D2D2D2D2D2D2D2D2D2D2D001D
:201060005B4573635D2052657475726E20746F204D61696E204D656E752020207C205B4207
:2010800061636B73706163655D2052657475726E20746F20506172656E74204D656E7500D6
:2010A0003A200025732573001B5B481B5B25643B2564481B5B3F323568001B5B3F32356CD1
:2010C0001B5B333B2564481B5B314A1B5B482563000A0D00FF00000000000000000100000D
:2010E000008080808080808080809090909090808080808080808080808080808080808020
:201100008018040404040404040404040404040404020202020202020202020404040404D3
:201120000404434343434343414141414141414141414141414141414141414104040404F1
:20114000040423232323232321212121212121212121212121212121212121210404040411
:201160008000000000000000000000000000000000000000000000000000000000000000EF
:2011800000000000000000000000000000000000000000000000000000000000000000004F
:2011A00000000000000000000000000000000000000000000000000000000000000000002F
:2011C00000000000000000000000000000000000000000000000000000000000000000000F
:2011E000000097B92EE5725CCB5DCAE473B82F0196BA2D03945FC8E671E7705EC90295BB2B
:201200002CE3745ACD0691BF28BE2907905BCCE27559CEE077BC2B05920493BD2AE1765881
:20122000CF51C6E87FB4230D9A0C9BB522E97E50C7EB7C52C50E99B720B6210F9853C4EA6C
:201240007DB2250B9C57C0EE79EF7856C10A9DB324089FB126ED7A54C355C2EC7BB02709BF
:201260009EA2351B8C47D0FE69FF6846D11A8DA334188FA136FD6A44D345D2FC6BA037196E
:201280008E41D6F86FA4331D8A1C8BA532F96E40D7FB6C42D51E89A730A6311F8843D4FA3D
:2012A0006DF3644ADD1681AF38AE3917804BDCF26549DEF067AC3B15821483AD3AF16648B0
:2012C000DF1087A93EF5624CDB4DDAF463A83F1186AA3D13844FD8F661F7604ED91285AB7B
:2012E0003C00CD2A031000452B0310021F44031000FD430310011F44031000FD430310038D
:20130000D10B031000FD430310045110031000FD43031001472D031001412D031001FD4375
:20132000031001FD43031001FD43031000752C031001FD43031001FD43031001FD43031042
:2013400001FD43031002472D031002412D031002FD43031000752C031002FD43031002FDD0
:2013600043031002FD0E031002FD430310046510031000FD43031003472D031003412D03C5
:2013800010031F440310031F44031003FD43031003D10B031003FD43031000752C031003F6
:2013A000FD43031003FD43031004472D031004412D0310041F440310041F440310041F4419
:2013C0000310046510031004FD43031004FD430310043D10031000752C031000013636013A
:2013E000010001020100010301000104010606080400000C0100340D01000F10040101143D
:201400000100FF1608000020020000220100FF23010001240100FE250100082602000028A4
:20142000010001290100012A0200002C01000F2E0200003001000131010008320200FF3414
:20144000010007350102FF360100003701000138010001390100FF3A01000F3C0200FF3EA5
:2014600001010F3F0100014001041F41010001420100FF43010080440800004E0100084F7B
:2014800001000F50010001510100FF5201000A5301008954010001580400005C04000060ED
:2014A00004000064040000680400006C0400007004000074040000780400007C040000807C
:2014C0000100FF810100018201000183010102840100010203120020FC3F0020FE3F002009
:2014E0008E110020EE3F002001120020FE110020F15C0100C955000087530100AD3F01004A
:20150000853F0100C50801001D090100ADF0000031260100A5430100213B01005122010062
:2015200047620100DD53010005340100692F0100353F01005D430100814301009D2F010055
:201540004D3B01007DC00000D5BF0000C13901001D0201006D0F01005D5A01006B5A01001B
:20156000CB0E0100314901008F1D010065DD00009122010021D20000F53A0100FD5C0100F6
:2015800059440100F5540100494D0100112301009D6E0000F1480100CD0E01001113010051
:2015A00000000000000000000000000000000000000000000000000000000000000000002B
:2015C00000000000000000000000000000000000000000000000000000000000000000000B
:2015E0000000000000000000000000000000000000000000000000000000000000000000EB
:201600000000000000000000000000000000000000000000000000000000000000000000CA
:20162000000000000000000000000000360001000600000000000000000F0000000000005E
:20164000000000000000000000000300FFFF00000403FFFF0000FFFF0F00E8030005401F28
:201660000310000101000000FF3F0F0008000E0000000000000000000300010F00000901D5
:2016800000000000000000000000000000000000000000000000000000000000000000004A
:2016A000000000000000000000000000AD00000100000000010171010101010111010101F0
:2016C00031010101010180010001100161013B001400630173017201620143010001130189
:2016E00006013D01350004011201000100010001000104010401330133013C01440132012D
:201700003600000100016501000135008101000105018201830100016601000100010801F2
:2017200009010A010B01030071003001600011007000310220035004800007001000610060
:20174000000014006300730072006200430000001300060000000000040012000000000059
:201760000000000004000400370037003C0244000000000000000000650000003500810056
:2017800000000500000083000000660000000000080009000A000B0003027102300160022A
:2017A0001102700201020202020280020002100261023A004100630273027202620243022E
:2017C0000002130238000002000204021202000200020002000204020402370037003C02DC
:2017E0004402000239000002000265020002350281020002050282028302000266020002C3
:201800000002080209020A020B0201037103010301030103010301032203020301030003DB
:201820001003000300030003000300030003000342030003240306030003000304031203E6
:201840002503230325032303040304030003000300034403000300032303000365032100D6
:201860003503810300030503000300030003000325032303080309030A030B030304710499
:20188000020460041104700402040204010402040004100461040004140463047304720451
:2018A000620443040004130406040004000404041204000400040004000451046400000463
:2018C000000400044404000400040004000465040004350481046400050400048304000481
:2018E000660400040004080409040A040B040001295601002D540100F3610100EF61010097
:20190000154C010095560100E95A01003D4201004B4B010039410100453E0100D11F01002E
:201920006D3E01003B4F010051000100B50601007DEE0000AD000100955A01006B460100A7
:201940009B61010001D10000795C0100614E0100715601004F6101008D460100654400003C
:20196000AD8700000000000000000000000000006550010055540100F1DF00009D5C010009
:20198000E9600100E36001002F53010000000000D760010029E80000D50C01005148010071
:2019A00055DB00003B56010025A5000045500000EDEE0000B148010000000000711B0100A4
:2019C0004D50010085C70000000002000000020002000200000032000400010000000200DC
:2019E0000000000000000000050001000000070006000100000003000700080000000000C1
:201A00000F0001000100FF001000080000000000180008000000000022000200000000005A
:201A20008F0000008F0001008F0002008F000300900000018F00010190000002900000031D
:201A40008F0001048F0000058F0008048F0000048A000006510000007F0001003F0004008C
:201A60003F0002003F0001007F0002008F0002048F00010238C40D00C800000081000000EB
:201A800032000F0100C50D00900100004000000096000501952B0D00C8000000220000000E
:201AA00032000F0200000000000000000000000000000000000000000000000000000000E3
:201AC000000000007B7374617469632D696E7374616E63652D6E616D657D007B656D707405
:201AE000792D696E7374616E63652D6E616D657D007B756E6B6E6F776E2D696E7374616E5B
:201B000063652D6E616D657D00010401C9530100B9560100055B0100A9560100995D010027
:201B20002F600100296001000000000000000000000000000000000000000000000000008B
:201B400000000000415B0100355B0100C003000080070000000F0000001E0000003C0000A4
:201B60000078000000F0000000E0010000C003000080070000000F0000001E0000003C0069
:201B8000000078000000F0000000F0000000000002000000020000000A00000002000000DD
:201BA000020001000000000000000000000000000000000000000000000000000000000022
:201BC0000E00000052616E646F6D5F736565644175746F6D617469632829206661696C657D
:201BE000640043727970746F206F70656E206661696C65640001FF0007380000000000006A
:201C000000000000000121030F008000520798E00800C810F40E0020930300800500000022
:201C20000000000000000000043800000000000000000000000000004E9055000000000035
:201C4000FF0000000000000000000000000000000000000000000000BF080000C6080000F0
:201C6000CD080000D6080000DF080000E8080000F1080000FA080000030900000C090000BE
:201C8000150900000D0480800C4000801C0000801D0000801E0000800F2000800E20008015
:201CA0000604808007048080FE000000A75F01004760010035340100914701002D120100DF
:201CC000055001000DEE000079120100AD5B01008592000071E00000BD070100F75F01009A
:201CE000854A00002D830000EF600100FB10010091AF0000F5600100D9DB0000001000406F
:201D00000600000015000000FF000000000000000D0CFFFF143C00202000000001030000FE
:201D20000000000000000000FFFFFFFFFFFFFFFF00000000000000000101010100C20100E4
:201D4000030000000000000044100020A8070020F81B00001C1E0000681D0000281C000027
:201D6000E81D0000000000000338000000000000000000000000000014000000000000000F
:201D80004E9055000000000000000000000000000000000000000000000000000000000010
:201DA0000000000000000000FFFFFFFF0000000000000000000000003A013A0100000000B1
:201DC000000000000000000000000000000000000000000000000000000000000000000003
:201DE0000000000000000000053800000000000000000000000000000000000000000000A6
:201E0000000000000100000040420F00010000000000000000000000000000000308000024
:201E2000000000000000000000019303000000000000000000000000000005800000068000
:201E400000000780000000000000000000000500BD00B700B100BC001C0030003800080089
:201E600038010200286E756C6C290030313233343536373839616263646566001404C0A041
:201E80000A0480A0090480A008400080FE0000006410002054100020040000000400000001
:201EA000FFFFFFFF00000000C9AE00001D500100010101000000000002000000000000003C
:201EC00000000000FFFFFFFF000000000000000006000000020000008600000082000000F6
:201EE000001610160E18151C0212032418580302100258FFFFFFFFFFFFFFFFFFFFFFFFFF42
:201F0000FFFFFF010200000000000000FFFFFFFF000000000C360020EE18000034360020D3
:201F2000EF18000005000000D0070000C8000000FF000000C0300020C12000001C31002099
:201F4000C3200000000000002000000040000000600000001C0880801D0880801E0880806F
:201F6000FE00000088B2240088130000100000000000000100008080000080840020808431
:201F8000004080841B5B324A1B5B32301B5B3F32356C0000A6AAACA4A9A9A399B19ABCB6C0
:201FA000A8313118191A22311C1E2031313431313117191A21241B1D1F313133310000004A
:201FC00031353420436F6C6C6563746F72000000AC1C0000FD3F002090200000FF000100CC
:201FE0006F4F010007000000D41C000028290020FC1C0000000000800020008000400080C2
:202000000C0E020B040B0A070800110F000120181A18182C34041E00000000800004008048
:202020000008008033333333333333330301020402010101010902002C0A0020300A0020B5
:20204000FC3D0020F61B00003333333333333333E803000000006400FF0000000000000030
:20206000010200030200010300BE020800BE040A0000000008000000FFFFFFFFFFFFFFFFC0
:202080003545251502030504000408100004081000E00400008000001B00000000000000C7
:2020A0000001040010040810181C10000810182004040810181C00000102030400010400F8
:1820C0000002010301000000000000005C7C2F2DB410002000010509DA
:2020D80001000000000000000000000000000000FFFFFFFF5811002004000000000000005E
:2020F800000000001400000030FD021018000000E02500009821000030110020040000003A
:2021180000000000000000002400000018FD021018000000D552010008000000882200006A
:202138004C210000C1C8021001BB021091EB0210DDE5021081E00210B9E5021071E50210C4
:202158003100000001000000010000001026000000000000FFFFFFFF50110020040000007D
:20217800000000000000000028000000B8FC0210240000001E0000001800000000000000FF
:2021980000240000AC2100009BEC021025E2021005EB021025DE0210FDE10210E1E40210A6
:2021B8002F000000340000002400280000000000980F0020FFFFFFFF7811002004000000E8
:2021D8000000000000000000380000006CFC021028000000010000001000000000000000FC
:2021F80000000000F7F1021000001A001000000003000000D4250000142600000800000065
:2022180036000000580F0020480E002009001D00A7560100480D00200100000000001200C7
:20223800FFFFFFFF681100200400000000000000000000001000000048FD0210180000006E
:202258000000000000001300FFFFFFFF80110020040000000000000000000000540000004E
:20227800A0FB02103C000000000001002D000000DC200000874B010030000000416001008E
:2022980088220000B0220000D50A0100D9DB021059EC0210CDD6021085DE02104DE502103F
:2022B80029E5021030000000000016000000000000000000FF7F0000E80A0020FFFFFFFF14
:2022D8006011002004000000000000000000000058000000DCFB02103400000039FB021096
:2022F80001002F00060000000000000020000000010000001BF802102800000000240000FE
:202318002823000093EC02106DEB02104DEC021029E00210BDE4021099E402102D0000008A
:2023380000000000381100200400000000000000000000001000000040FC02102C0000008E
:20235800000000000000030000000F003C00000000000000000000002FF9021010000000CD
:2023780008000000C0250000FFFFFFFF701100200400000000000000000000001C0000009B
:20239800DCFC02102400000014230000201100200400000000000000000000000C0000007F
:2023B80000FD0210180000000F600100000000000000000008000000010000000400000061
:2023D800000000000000140000000000C41A000000001900000018002400000083620100B8
:2023F8000040000000020000DC2000000000100055F002100C00000079A3000000000000F8
:20241800181100200400000000000000000000002000000010FC021030000000DB1A0000F4
:202438000100000021600100AB4101000000000000001700000200003100000000002300A7
:202458000000150001000000982200004811002004000000000000000000000020000000F7
:2024780094FC021024000000F11A0000B4100020200000000025000071E10000876201000E
:202498008B6201008F62010093620100976201009B620100C1D9000095370100E5260100E3
:2024B800013D0100AF460100395D0100CD51010075320100E5510100BD520100FDF100003C
:2024D80088220000F0240000515D01005D5D0100755D0100695D0100F53701009D45010012
:2024F8002D5201003200000015F9021001E602102DDA021045E7021041D10210C9D30210D0
:20251800A5DF02102DE4021061EA02105D270100002400003C2500006F62010049DA00008E
:2025380055E50000C537010079450100FD5101002E00000028250000281100200400000066
:20255800000000000000000020000000A825000018000000D82400004011002004000000ED
:202578000000000000000000140000008C2500001C0000001C000000000000000000000046
:20259800A0250000000000000800000000000000180000000000000000000000B825000061
:2025B8000800000000000000010000000000000000000000000001000000010025DD0210E4
:2025D80031C8021075DF0210000000000000000010000000010000004361010073620100E6
:1D25F8002B3D010049610100155D0100215D0100676201000A000000355001000066
:20261800F0B591B0DFF8B8034FF0FF31006813F0C1FF002800F0D181DFF8A80300780DF02F
:202638000BFD002800F0C9810446DFF89C030768002F00F0BF8120780138122800F2BA8152
:20265800DFE810F013002F0049005E006E009B00A900D400D600F000F20002011F012A0126
:20267800B801330147014E0159013868002800F0A1816D46112105F10806304612F084FFA6
:2026980013F0C9FBCDE90001A07A314610F0D1F805F10E0004F10B010B2213F0F5FD396882
:2026B80027E17868002800F085810020211DCDE90200CDE9000060788DF800006088ADF846
:2026D8000200684628C9021D28C20B8889789170138079686DE1B868002800F06B8113F0BA
:2026F8009AFB6D460B22CDE90001A07A04F10B018DF8080005F1090013F0C6FDB968F8E030
:20271800F868002800F0568100200290CDE9000012F05AFF40F0F7800088ADF80200F8E0E1
:202738003869002800F046816D464021284612F02BFFE178A0788DF80110616800288DF8D6
:20275800000000F01B8111B1281D0FF015FD207A8DF82800607A8DF82900A07A8DF82A0025
:20277800E07A8DF82B00207B8DF82C00607B8DF82D00E089ADF82E0019E17E69002E00F023
:20279800198113F048FB6D46CDE9000105F1080004F10A01ECE0B869F8B16D461C212846E5
:2027B80012F0F2FE6078E1782279A6788DF800008DF803208DF80210281D611D11228DF8E6
:2027D800016013F061FDA07D8DF8150010B1A069002E0690B96968468847A0780028A069F2
:2027F800002800F0E78013F0F6FCE3E0F96971E03E6A002E00F0DE80002021796279A37902
:202818006D46ADF8000060788DF8000060888DF804108DF806308DF80520E11DADF8020060
:20283800E81DA5E0796A38E0BE6A002E00F0C2806D461621284612F0A7FE12F0C5FE6DD171
:202858000088ADF802006EE0396B99B10020258A6669CDE90200CDE90000B4F80100D4E97F
:2028780002230496ADF80C50ADF800006846CDE9012388476068002800F09C8012F059F934
:2028980098E0786B002800F095806D462146284609F02EF8796B2CE0B96B002900F08A80BA
:2028B800B4F80100ADF8000082E0F96A002900F081800020ADF80C000290CDE90000A01CFA
:2028D800A27A022A8DF8082036D10088ADF8000036E0396C00296DD060788DF8000067E0F2
:2028F800F86B002866D06D462146284609F000F8F96B28465DE07B6C002B5BD0A21C00205C
:202918000021984756E0694602684068023148600A60A089ADF80C00F96849E002684068ED
:20293800A91C48600A60207D02288DF8140011D1A089ADF80C0011E002684068CDE90020B3
:20295800A089ADF80A00A07B002818BF01208DF80C002DE0E0682169CDE90301E08A04F1C3
:202978001901ADF81600207E8DF8180005F119000B2213F089FC2846B0471BE011B1281D04
:202998000FF0FAFB227AE068C2F3021112F007028DF830108DF828201CBF0B9000EB42003F
:2029B80001B10D90207C8DF8380060690F90396968468847204612F0BCF811B0F0BD00BF87
:2029D800FC380020E83F0020DC1100202DE9F04F8FB0DFF880830546D8F8080013F0E6F8C5
:2029F80000280C9000F0A98113F0E9FB0090D8F808000DF13A01D0F8882482209047BDF8B7
:202A18003A004FF6FF79D0BB00264FF0FF370DF1200A0021D8F808008BB2ADF83A10D0F86C
:202A380000219488A34224D2ADF8201000210B970A97ADF82690ADF82490927A91420DD2BB
:202A58000C9840F831600C9800EBC1000131A0F80490D8F80800D0F80021EEE7D0F894242D
:202A7800D42051468DF834609047BDF83A00411CD0E7D0F894240DF13A0182209047281D49
:202A9800019008A80830029005F11500039004AF0020FE1CADF83A0082B2D8F8080013F09A
:202AB800ABF980F04C814FF0000A012491F80BB0DA452DD213F09BF9D0208DF812A0ADF8EA
:202AD800101039469047E0B99DF81C0001280BD19DF81B1041B913F0CBF93046884700282B
:202AF80040F084809DF81C00297D884208D109220028304608BF0522039912F07FF860B9AB
:202B18000024D8F808000AF1010AD0F80011CDE7002C6BD1E87F002868D00024D8F80800E3
:202B3800D0F80011CA8894425ED213F060F9D120ADF81240ADF810103946904790B9BDF8EF
:202B5800140048450ED0ADF82000D8F80800D0F88824D42008A99047002840F0DE8013F098
:202B78008CF908B90134D9E728680990DA4532D2287BBDF83AC00C9A8DF83400D8F808002D
:202B9800D0F8000190F80AE00020864500F0C580034602EBC0008188494502D0581C614549
:202BB800F3D1286942F833000C9800EBC300A0F804C013F049F808A99047A87F9DF81610DF
:202BD80081420CD08DF81600D8F808003946D0F89424D12002E013F037F808A99047D8F86F
:202BF8000800D0F80011CA88944203D0BDF83A0001304FE708AF00268A88B4B2944280F0F0
:202C18009480D0F88824D4203946ADF820609047002840F0828013F02BF90298884718B9EA
:202C380013F02BF9002872D0287B0C99039600268DF8340028680990D8F80800D0F8000161
:202C5800837ABDF83A00B34271D0324601EBC606B7884F4502D0561C8742F4D1DA4534BF53
:202C78002B69002341F832300C9901EBC20188800199D1E90001CDE90A01D8F80800D0F8D8
:202C9800B800017829B1026D1AB1BDF82010019890470027D8F80800BEB2D0F80011CA88E8
:202CB80096422ED213F0A3F8ADF81270D120ADF8101004A99047E82805D0BDF814004845EA
:202CD80001D00137E6E7BDF82000ADF8140000208DF81700A87F8DF81600D8F80800D0F85A
:202CF800942408AFD42039469047D8F80800D0F89424D12004A99047D8F80800D0F8001185
:202D180000E008AF8A889642039E04D20DE0D8F80800D0F8001101366EE713F0B8F90C9821
:202D380008B113F058FA192010E0944207D113F0AEF90C9808B113F04EFA1A2006E013F021
:202D5800A6F90C9808B113F046FA00200FB0BDE8F08F00BF0C0100202DE9FF41B04EB14FD9
:202D7800B14D30883968EC880844224600F10801E868806D13F088FA3088DFF8B082011925
:202D9800E868D8F808303180826D2244826538688AB2D3F8D430083093F88370845C4A1C2F
:202DB8003280022F05D192B2835C8A1CA04932800B7091B24058111D31800421039003A846
:202DD80010F068FF039011F089FFE968C863039811F092FDE968A1F84000EA2010F0B8F8CD
:202DF8009448426812B1E8680121904702219248022F017009D1D8F80C004069007820B1E2
:202E180011F0D2FE08B10120A870A878E96800280A7C60B218BF42F004020A7400210026D2
:202E380013F003FA0146E86880F8461000F17401B0F85C2080F8484080F8476081650189FC
:202E5800511A42680A44818942608B0513D40B071FD501F00703032B0AD053B912F8033F73
:202E7800382606EA530603F0070306EB43031A44013242610DE0D8F80810D1F808138847A3
:202E9800E868416E11B1B0F8681091B1416841618189090714D490F8601001B3D8F8081016
:202EB800D1F80C138847E868C16CC1B1B0F85000A8B9D8F8080012F0EAFF0020E86029E0C7
:202ED800D8F80810D1F8B4148847E9684870E86881694165407810B1F22010F039F812F0EB
:202EF80041FD00F09280EA68938903F00706022E04D1524E36780EB956787EB1504E03F460
:202F18004053B3F5005F367879D1002E77D0507800285FD00CF020FCBDE8FF81002002F123
:202F380028018DF80B000DF1030013F004F9454ED8F808100DF10B023088D1F8B8100130BF
:202F58004B6A04213080E868406E984740B9D8F80800006C006818B19DF80B1080F86810E4
:202F7800E86890F83010022916D1D8F8081028300023D1F8D41001F1200214780778A742F7
:202F98000AD101300132DB074FF00103F5D016310DF1030013F0CFF82B48007886280AD16A
:202FB8007088E968013089897080284801F0100100780DF001FFD8F80800D0F8B8100A78AC
:202FD8002AB1896C19B1E8688847D8F8080012F05EFF1EE0D8F80C00806804701948EA6800
:202FF800818801318180A87802F12801002818BF04201C320DF0D6FF12F0B4FC05D0826C89
:203018001AB1E8689047D8F80810E868D1F8581288470020E86011F009FFBDE8FF8100BF17
:20303800EE2E0020583F0020B00F00200C010020F53F0020881D0000F03F0020FF3F0020D3
:20305800F33F0020683E0020F83F0020004000202DE9F04F85B0DFF8B88298F80000012835
:2030780022D1DFF8B092D8F8105099F82570D9F81C401B2F21D1A84813F000F8B0B1A74832
:2030980012F0FCFFA0B1A64812F0F8FF90B1A54812F0F4FF80B1A448052111F0E3F9002878
:2030B80040F021811B2708E0012428E1FA2704E0FB2702E0FC2700E0FD27A7F14100C0B253
:2030D8001A2805EB450038BF203704EB800B5D4615F8140F2E46032816F801AF1ED0022851
:2030F80040F0B280914C12F0E6FE12F075F94FF0FF3001902878022840F0A680307820B389
:20311800F8B21B2837D00D2848D1DBF8183000203070CBB302A901AAFF2034E0834C12F0A2
:20313800CAFE12F059F92878032840F08680307890B1FCB21B2C05D0FD2C51D0FC2C55D010
:203158007F2C5BD10024347078E0F8B20D287BD10120FE27307021E0F8B20D286DD1012010
:203178003070DBF818000368002B5CD0C08802A90022984757E0DBF81830002030701BB118
:2031980002A901AAF9209847002089F80000002005F052F93078002800F0A580DBF81830C8
:2031B8001BB102A9F8B201AA9847012005F044F9BDF806004FF6FF72904203D0BDF804101A
:2031D800914203D1002089F800008CE0A9F804000120A9F8021089F800000FF069F982E066
:2031F80012F0FEFA013991FBF2F304E012F0F8FA0131B1FBF2F303FB12110180DBF81800EA
:2032180003684BB16FF00C01C08851FA87F1B1FA81F14A0902A99847B4F10D0018BF012014
:203238000D2C307009D0DBF81010049810F002FF0120012405F000F900E00024307882458D
:2032580018BF1B27002C4ED16FF0FB00F9B250FA87F002280ED30D2917D01B2928D07F2920
:2032780041D1D9F81C00C16859B3D8F81400C9F81C1033E0D9F81C00007A012833D0FD2965
:2032980022D0FC292CD1012120E0D8F81000D9F81C1000EB400201EB82010A7D012A32D0B3
:2032B800F2B98969C9F81C100021C8E9041017E0BAF1000F01D0307890B1D9F81800C9F871
:2032D8001C00007A013809E04FF0FF31D8F8102001441144B1FBF0F202FB1010C8F810009A
:2032F800002005F0A9F8D8F80800002409F12001052289F82940C9F8254012F0F8FE204654
:2033180005B0BDE8F08F89690029E9D08847E7E7D00C00202C050020870F00008B0F0000CE
:203338008F0F0000930F000098200000E42A00202DE9F04F95B0DFF8B4B2BBF80600C107F7
:203358002AD09BF8000000BB00240020039403A90DF020F906A810F0FBFA70B103980021F0
:203378000AF03AFF0FF09EFA014606A8002207F06FFA01208BF8020007E0039800218BF828
:2033980002400AF029FF12F00DF90BF10600012111F080FEBBF80600410608D511F0ACF983
:2033B8000BF10600402111F075FEBBF80600010608D511F091F90BF10600802111F06AFEEA
:2033D800BBF80600810771D5894E00244FF6FF7544F6FE484FF00009B9F5167F39D036F858
:2033F8000900A84232D006EB0907B7F80AA05FEACA712BD05FEA4A414ED41AF4104F22D092
:203418000221ADF80000CDE90344059468468DF8081006A90BF054FF18B1DDE90701CDE9A1
:20343800040136F80900CAF30031ADF80E00BBF80800ADF80C0003A811F0A8FB788900EAF1
:203458000800788102E05FEA8A4025D509F10C09C2E7002044F6FF71B0F5167F0AD0325A42
:20347800AA4205D032185389DC071CBF0B4053810C30F1E70021B1F5167F08D0705AA84274
:2034980003D070184289D20707D10C31F3E741F288300FF0A7FC02E038460DF0D3FD0BF170
:2034B8000600022111F0F6FDBBF80600410725D54F4D00204FF6FF7440F20131B0F5167FCA
:2034D8000DD02A5AA24208D02A18538903EA01068E4204BF23F4407353810C30EEE74FF420
:2034F80040704FF4807110F029F8002856D00BF10600042111F0CEFDBBF80600000741D598
:203518000BF10600082111F0C5FD3A4C0A208DF80C00208F12F07FFE8DF80D00208F12F0F3
:2035380078FE8DF80E009BF80100012826D106AD3C21284612F028F89BF80400411C1E28DC
:2035580088BF00218BF8041040F0A00002218DF824100321ADF840100021ADF8261003A9E7
:203578008DF8250005F12C000F91BBF80810ADF8221011F0AFFE284612F0E3FD42F2107073
:203598000FF0ACF905F052FC04F040FBBBF8060008B9FFF735F815B0BDE8F08F002040F225
:2035B8000131B0F5167FA2D02A5AA24204D02E1873890B40012B01D00C30F2E70220ADF873
:2035D800182040F61F4140F6B8324FF4FA638DF8200006A807F0A2F900287FF488AF708995
:2035F80020F4407000F58070708180E76C080020D0220020BC3900202DE9F047DFF874A2BD
:203618001D461446DAF8080012F012FB1ED1DAF80C001FFA81F90121984F4FF6FE78C068A0
:2036380001700020F870A80637D415F0E04F6BD0B8790138B8719248426805F08070002A2B
:203658007AD000287DD012F028FD76E08A4801218A4F0668DAF80C00C0680170002005F04F
:20367800E041F87004F0020040182CD097F90600012802DBB8790138B87197F90500012872
:2036980002DB7879013878717D48426805F0807032B388B312F001FD23E0DAF80800A7F832
:2036B8000A8012F012FC56D076480078832802D0754881210170396900294CD000208847D9
:2036D800A7F80A9047E0E00331D4A00300F18680600240F18780002030710CF03DF881E003
:2036F80050B197F90700012802DBF8790138F8710120387111F0E8FE002030710CF02CF86F
:203718007879002860D173E014F4860F00F08D8084F48030A7F80A90C7E9064528431AD1A8
:203738005A484088B0F5505F00F0918013E00020307152F059FC55E018B10120387111F09E
:20375800C3FE7889484508BF0CF006F8A7F80A80787901387871A0072AD54C4E43F201414E
:203778007088884209D043F20441884205D04B4940F60902498891424AD1B879397A0131D3
:2037980001383972B8710BF0E7FF10F011FE0020A7F80A807080DAF8080012F096FB02D09C
:2037B8003F48007808B911F08FFE787901387871B87908B90020B8707879D8B104F00200E6
:2037D80005F0E04140181CD097F90500002818DCDAF80800D0F84C05804712E00020307159
:2037F8000EF038FFA00648BF12F02BFD787940B90020B870DAF808000021D0F85824002014
:203818009047DAF80C000021C0680170BDE8F087B9790139B9717989494522D1B87E10F0B6
:20383800410F24D052F0E0FBB1E71B4804423FF492AF84F08060A7F80A90C7E90645284367
:203858007FF489AF1148408802287FF484AF11490F480022096800684B690FFA89F19847F2
:20387800A6E743F6040188423FF48FAF8FE70BF073FF8CE70C010020D83F0020180F002029
:20389800881D0000F83F0020F03F0020083B0020EC100020A83F002000000C8CB43D002096
:2038B800F33F00202DE9F84FDFF834928846834616461F46D9E90201D0F8D40090F88320C0
:2038D800C8680121017000208649012A087022D1D9F80800016C096809B912F0B4FB87488F
:2038F80012F02AFB0446814805681DB1854811F086FEA847B00730D417F0E24F00F0968001
:203918007C4801780139017083480078862821D10EF0A0FEA0E074490870D9F80800016C2D
:20393800096809B912F08FFB704804681CB1704811F065FEA04717F0E24F4AD06D4801783C
:2039580001390170D9F80800006C006840680078800660D410F01AF97EE0DFF898A100217B
:203978009AF8000001388AF800005F480170664843F20A41408840F002028A4205D0634A52
:20399800528842F002028A4205D124B1218843F60302914241D15B4943F604024988914235
:2039B8000DD05A4B5B88934209D043F60402904205D0574840F609024088904271D157489B
:2039D800007800F0FE00022827D1002008F0A0FA60E0484C207801382070300739D5464E87
:2039F80042F20541708840F00400884208D1434812F0A2FA20B1008842F60141884237D198
:203A18003B484188B1F5105F23D140693C4908600EF092FC20E0E9201CE0002005F024FFDA
:203A38009AF8000090B39AF900001AE006F4860007F02001401806D05846414632463B4628
:203A5800FFF7DAFD08E03CB1208840F60301884202D01D2008F05CFA26480178B1B190F9D1
:203A78000000002816DCD9F8080012F0ECFA11E0718842F20542E120914208BF1C2008F01F
:203A980047FA207810B194F90000EAE7D9F8080012F0D5F9D9F80C000021C0680170BDE831
:203AB800F88FB1F5505F10D11A481549006800F5C07008601848007886280CD158464146F4
:203AD80032463B460DF03EFC07E0080505D51D2008F01EFA01E00EF02FFC11F0F5FCBBE7E5
:203AF8000C0100201B0F002002120020881D0000E43D00201D0F0020343C0020A83F00203A
:203B1800BC3F0020543C00200C3D0020F03C0020CC3D002028010021F83F0020FB3F0020E9
:203B38002DE9F84392480021924D016095F83A0103282CD002285FD0012840F015818E48D4
:203B58004BF2F521006800FB01F68E48340A006800F44020B0F5802F11D18B4800688003DC
:203B78000DD4874FB86C006880470DF007FBF96BC9688847C010310B484304EBE03495F899
:203B9800400100285DD0002085F840015FE07A480168B1F5C060C5F82C01B8BFC1F5C06032
:203BB800D5F81011002900D54942884244DD744E724C30214FF47F42082330684768B5F897
:203BD800140100902046B847306804214FF4F80212234768B5F8180100902046B847306892
:203BF80020214FF440620A234668B5F8280100902046B047012020E05F48604CD0F800802D
:203C1800B8F5C061C5F81011206BC0F30720C5F814016268C2F38442C5F81821236AC3F32B
:203C38008123C5F8283107D095F83061E6B1D5F82021D5F82C111BE00020062785F8300118
:203C580090E05248006820F07F40204444085048210C022704604160012181604D48807BD5
:203C7800002808BF06277DE0C5F82C11C5F824310223C5F81C01002948BF6FF0010301EB29
:203C980041011944042391FBF3F111440029C5F8201112DD1F2933DBD5F824213AB33F22C5
:203CB8003F2838BF421C2929A8BF2921A1F10B00C5E947200021104620E0D5F82421032AC5
:203CD80009D111F1140FD8BF6FF013011531C5F82011002112E0002818BF013811F10A0F29
:203CF800D8BF6FF00901C5F81C010B3103E03329A8BF33211539C5F820110321C5F824114A
:203D18001F4E80B24FF47F42082331684F68009020463021B8473068A14604214FF400320E
:203D3800112304274468012000904846A047306804214FF4F80212234468B5F82001009001
:203D58004846A047306820214FF440620A234468B5F8240100904846A047A8F2FF50032854
:203D780038BF0627C5F83C71BDE8F84302F080BE3C500C402001002008400C4000A00C40F4
:203D9800A4010010B44F00508C130050102009407C600C40A41E000086B00EF043FF12F039
:203DB8000EFA04460BF0F8FA10B1894812F0EEFB11F0FEFA02AD284611F06AFC042029461F
:203DD8008DF80800002011F06BFC824FB968D1F804110860B868D0F80401006810B97E489A
:203DF80012F0D4FB12F0CEFB12F0C8FB11F023FE204612F0EAF90EF0FFF9DFF8E0814FF46C
:203E1800804198F8000011F025FF7648744C764D0DF1040A01260DF1080B814698F8000038
:203E38000EF082FBE06012F0A5FBE16898F800000BF082FF0CF096FFE068810637D5B8682C
:203E5800C06B043010F06CF9029078B312F0B7F9B968C96B0A7B013A0A7312F0B6F9BA68B2
:203E78000298D2F89820017850608DF804104178A1F1DB02182A0FD806FA02F24B4612EA7A
:203E9800090F09D012F072FB9DF8040016280AD1584612F067FB02E009B912F05FFB9DF861
:203EB80004001628CBD011F0B1FEC8E7E06801041FD598F800000CF0BFF80290C0B10178AE
:203ED800D0290CD308D18178D0E902232970B0F80310C4E90123218010F02BFEE9E7B96862
:203EF800D1F89810486012F039FB11F08FFEE0E7E068C10603D52E2011F09CFFE068C10725
:203F180003D0252011F096FFE068810703D5262011F090FFE068410703D5272011F08AFF24
:203F3800E068010703D5292011F084FFE068410603D52D2011F042FFE068010603D5302007
:203F580011F03CFFE068C10503D5352011F036FFE068410503D5232011F030FFE0688105F5
:203F780003D5362011F02AFFE068010503D5372011F024FFE068C10403D5382011F01EFFD5
:203F9800E0684004564648BF0FF028FFB8684FF0000AD0F89800006898B112F010F9B9680E
:203FB800D1F898100A680292C1F800A012F00DF9B868D0F898100298486012F0CFFA11F073
:203FD80025FEC4F80CA012F0C5FAB246012625E7C41B00000C010020E21B0000340B0020EA
:203FF800041000201F220001E63F00202DE9FE4FDFF818A2064600208B4600928DF80B009B
:204018008DF80A609AF8040030B90AF1490011F077FB01208AF80400A6F1FA00052808D81E
:20403800DFE800F0BCBC8D03222A9AF812000138A6E0E6B10D2E00F0B1807F2E22D1BAF9B4
:2040580012100129C0F2AA808AB20323481EB2FBF3F303EB4303D21A022A00F08180012A5D
:2040780040F08C80F0227CE00120AAF812000AF1490011F045FB91E00AF1490010F092FFDE
:20409800012089E0A6F130000A2804D3A6F16100052800F28380BAF9121003206FF0020239
:2040B80091FBF0F000EB4000081A013991FBF2F21144C1F3460481B2012910D000B2022819
:2040D8001ED111F010FC00F0F00085F849000DF10A0002F031FE95F8491008430DE011F0DE
:2040F80002FC00F00F0085F849000DF10A0002F023FE95F8491041EA001085F8490003E000
:204118000AEB040090F849004149095D01EA0005C0B2E9B2814207D13E48414A01683E4835
:20413800006803F0CFFF0AE03A483C4A01683A48006803F0C7FF0AEB040080F849509AF8A4
:204158001200411C322808BF0121C8B20322B0FBF2F202EB4202801A08BF0131C8B21BE02E
:204178000F226FF0020390FBF3F30344C3F34603534493F84940224383F84920C9B2012942
:2041980008BF3220C1B20322B1FBF2F202EB4202891A08BF0138C0B2AAF81200214C0196C8
:2041B800002602AF4FF002094FF00008112E1CD00AEB06003946022290F849000FF062FF85
:2041D800DBF80000214650FA88F011F049FCDBF8000008F101053946022250FA85F010F051
:2041F8009BF959FA85F80136E0E7019858B1DBF808000D4911F034FC009901200880BAF84D
:20421800120001304880BDE8FE8F00BF88090020F31E0000883F00208C3F0020840A000068
:20423800B80A0000730A0000750A00002DE9F0438BB0DFF8E881D8F80000416E03A88847EB
:20425800784DDFF8DC912878D9F80440022811D184B10020002408F0ADFCD8F80010D9F8B1
:2042780004004968884770480121C06880690170C9F80440012028700020002C069041D194
:2042980008F014FB78B308F011FB01282BD008F00DFB052827D008F009FB0C2823D008F06D
:2042B80005FB0D281FD008F001FB0B281BD008F0FDFA0E2817D008F0F9FA172813D008F09F
:2042D800F5FA19280FD008F0F1FA1A280BD008F0EDFA1B2807D008F0E9FA1C2803D0524832
:2042F800806811F0ADFED8F8000028B94E48806811F0A6FED8F800004C4C016A2046884736
:204318004B48E06110F018FB474FB868D0F83C1411F0EFFD88470546B86811F07DFC411CD2
:2043380003D0444940EAE0704883424C0022D5E90001626062802A89237B667B013A43F00D
:2043580080035143237306F0F0034FF47A7600EB51000133B0FBF6F063732084B868D0F819
:20437800C403804700BBA8893349B6FBF0F00870F968C0B2B6FBF0F049680870B86811F078
:20439800B8FD022805D12D4802210170F868A82108E00EF0B1FF032806D12848052101707F
:2043B800F8685C2100680170D9F8040018B30020002508F0FFFBBA6899F80000D8F80010C5
:2043D800D2F8D42092F8532082420CD10E6D0221D9F804000023CDE9001503AA2146B047FD
:2043F8001948046012E0D9F8040049688847F86801218069017012480E4A0C4B0168D8F87B
:20441800000004680F48A047C9F80400B86811F070FD89F800000BB0BDE8F083A83F00202C
:20443800E8100020E53F00200C010020943C002054F10080D83A0020F43F0020041200206B
:20445800D03F0020F02E0020240F00202DE9F04F89B06D4D0F4604460020002FA96800F04D
:20447800D0801646002A00F0CC80387821FA00F0C00712D0304600219B4611F0AAFEC4E9E0
:20449800017611F09CFE614F06467878012802D828B101206CE011F0DFFD0020B1E003F03C
:2044B80017F85B480DF10409016841F00201016058482860484611F0D3F9DFF85CA1584931
:2044D8004A469AF801009AF800500390534828300DF018F9534854494A460DF013F94846CC
:2044F80011F046F9DFF84481514A19214B46029540460DF01FFC4F4A08F11C001A214B46B3
:204518000DF018FC4C484D4911F061FD4C484D4911F05DFD4C48006810F4402F06D04B4A8A
:2045380007F12800042100230FF08EFE9AF8020010B10E2007F094FB08F1400010F0D5FE5B
:2045580008F1380010F0D1FE4149002007223876B8843862386181F860200521C7E9021072
:204578003C49F96138700420002110F075F978782A4941F820400130787011F06DFDBBF1BD
:20459800000F06D10DF1040B33492022584611F07BFEDBE90012BBF81000DBE90635002A78
:2045B800B2FA82F608BF40F6C4122160E082E562760926754FF4FA76C4E9036201226275E9
:2045D800264AA261E261C4E90823DBF80C0000B1E061DBF8140000B12062DBF8080000B1BE
:2045F800A06104F13000C82110F0CEFF04F1480000210FF0A8FD1A4904F1B00011F0E7FCD9
:20461800204609B0BDE8F08FCC210840DC06002000200940110000E0DC1F00004407002048
:20463800BD4C01008039002099B20000E409002039FA00005DEF0000743800208542010014
:2046580030380020694C0100B44F00501D0F0100103400208D930000A81D000063C900000F
:20467800DD6001002DE9F04F8BB0DFF8CC91734DD9F80C00A84200F0A48011F0A0FD029055
:204698006F480026DFF8BCA16E808068D0F8B8000778DAF80000416E03A88847DFF8AC811D
:2046B8000320694C06968DF81C00002F0EBF4FF486042027C0F2001798F80000800706D403
:2046D8007D20002107F078FB8DF81C600646DFF880B10896DBF8141011B198F8000088478F
:2046F800DBF80C0008B1804709905A49D9F80C200020A8602962297B01F0F0012973564996
:204718008A420AD0554A0B8A1268B2F840609E4203D1CB89D28F9A4210D0484A0123488040
:204738000D4689F80330C1E90120087B4A7B00F0F000087302F0F0000230487399F8040088
:20475800002845D04548DAF80010474B0E6D0068CDE9004703AA2946B04705464348B5F194
:20477800FF3F058055DD99F8060000210024013089F806003148C9F80C0099F8050001308B
:2047980089F8050002200AF0E1F92D4889F80440374C8068D0F8AC10D0F8D400D0E91123D3
:2047B8000978C4F80320C28C408DC4F80730A0812088E28140EAC1102080029811F005FD0F
:2047D80031E099F8060000283FF457AF00202FE01B48806811F079FB03D198F800008006DF
:2047F800B0D51F4890F900000028ABD41D4800780028A7D1DAF80000C06B8047297BA86098
:20481800039001F0F0010231297301218DF8101098E7029811F0D9FCDBF804200AB111F0D3
:204838003CFC11F075FB0020B5F1FF3FC8BF01200BB0BDE8F08F00BF180F0020083B0020C3
:204858000C010020A83F002000004F8CF13F0020881D000000C42264B43D0020EC100020C5
:20487800F83F0020EB3F002011360000FA380020F43E00202DE9F04F87B0824602F028FE28
:204898006848007808F012F800261C2829D80121654A814011420AD1644A114213D010F0C7
:2048B80099FB02281CD163480126466019E010F091FB022803D010F08DFB01280ED15D4806
:2048D80005211F2608E0012101FA00F05849084207D0584803210726416002E010F07AFBB5
:2048F80000265548C16801F44001B1F5800F05D100680121000E01FA00F006434F484D4A79
:204918004F4F006800F07F011F2928BF1F215068FF2301440139116000228A4204D8BC1832
:20493800013284F82030F8E700224FF0010C00251AF82240FF2C0DD0FE2C0FD08C420BD8B8
:20495800844209D30CFA04F3334205D13C441D4384F820200132EBE702245EE0092007F030
:204978007FF938480121C7F800A04FF001090FF0EAFB3049DFF8D8B000244FF000080868C6
:20499800804524D809FA08F0304201D0042018E0284206D007EB080090F820005AF8201080
:2049B80003E04146602060F31F21274804F0C8FA264A04F47F70815821F03F0181501D4985
:2049D80000204BF80400043408F10108D7E704AC204610F0CDFE1F4E1F4A10212346307867
:2049F8000590381D0DF0A6F96D46284610F038FF70681A4900242A460394029007F1400091
:204A18000CF080FE16482022016862F30D21016014480121016014480160204607B0BDE8B9
:204A3800F08F00BFE93F002000C028140310800000200002D8100020A84F00504413005031
:204A58003C040020BC350020007FC767001008401433002058200000314C0100B52A01008B
:204A7800003009400C4009402C0009402DE9F04786B0D0E901680D4611F0FAFA317819B13B
:204A980011F0A3FB0024D7E00121317011F09DFBB5F815002B1D371DA6F815002888A6F8C9
:204AB80001000FCB0FC70021287D3075A869B061287F3077687F7077A87FA6F8B811316362
:204AD8007163B16331627162B162B185B077D8F8040007F0C5F8204607F010FCD4E901A7AA
:204AF800797D3A7DB87D01F10041019154490A43FF28029209D0FA7DFF2A06D000F10040D2
:204B1800114303900420049100E0022001A9FE2241F820200AF1540008F02EF90028CAF840
:204B3800600079D03968474D1322A94208BF0F22797D0DF017FD38681422A946A84208BFEA
:204B58001022DAF86000397D0DF00CFDB97DFF2915D0F87DFF2812D038681522484508BF31
:204B78001122DAF860000DF0FDFC38681622484508BF1222DAF86000F97D0DF0F3FC01AD20
:204B9800284610F0F5FD98F80C00D8F808102E4A2B460194029006F17C000DF0CBF8284668
:204BB80010F05EFED8F8100028492A460194039006F198000CF0A6FDB07830B906F1D4008E
:204BD80000210FF0C0FA22483061707830B906F5927000210FF0B7FA1E48F06001AD284677
:204BF80011F0D8F800201C490A222B4603948DF80400029006F5BA700CF014FED8E90612EC
:204C180006F13C0010F024FE144A06F16800042123460FF019FB0FE01149D8F8000009683F
:204C3800C9688847D8F8040006F0BCFE11F0C7FA0024347011F0C9FA204606B0BDE8F08752
:204C58000000C0A000100040BD79000065010100196001008D5F0100F517010059550100CC
:204C7800D00100102DE9F04F93B00DF0F7FF66494FF47A720E78AA21B1FBF6F1B2FBF6F259
:204C9800571A62490968A0EB0109B94505D960484FEAA709418A01314182DFF878B1DBF8DA
:204CB8000000416E0BA888475C4C5B4DA0682969D0F8D40090F883A009B100208847AD68BC
:204CD8000DB1A8471190DFF8588198F8000038B1544890F90000002802D45348007858B106
:204CF800002088F800004A4801890131018111F0A8FA13B0BDE8F08F4549C8880130BAF1E8
:204D1800010FC88012D1A7EB09004949002270438000C1E90120087B4A7B00F07000833098
:204D3800087302F0F0000130487307E03F4800210E91027B816002F0F00202733D48012186
:204D58000170E068C068007810B9A06811F0F9F8BAF1010F08BF10F023F811F030FA04460D
:204D7800BAF1010F19D1DBF80000416E03A888470DB1A84709902E4D002600210696288A24
:204D980007F01AF808902C48DBF800100F6D00680221CDE9001603AA10E0244D00260021DB
:204DB800E87B6E8007F008F810902348DBF800100F6D08210068CDE900160BAA1F4B29463E
:204DD800B8471F4900280880174911D48320087017481649BAF1010F08BF014619480160FB
:204DF8001948017801310170204611F0EEF980E70020074988F800000889013008812046C8
:204E180011F0E3F973E700BFF43F0020AC3F0020683E0020A83F0020881D00000C01002087
:204E3800F33F0020F83F0020EB3F0020E43D0020543C002002120020EC100020A1B70000CE
:204E58003E3F0020240F00201D0F00202DE9F04F8DB00746C08914468946073086B23046C8
:204E780008F0B2F80546FF280AD1304651F030FFB04205DA6B480778002F08BF05279DE0A3
:204E9800684E3078C0B91CB1022C15D1FF2D13D1387A002203238DF81C007868009206908F
:204EB8006148C188C07805AA01F068F99DF824003874BDF82000B881DFF86CB10021042300
:204ED8009BF80340BBF806A00CAA204610F080FC9DF830007E2805D120467C210DF09CFF17
:204EF8009DF830007C2865D1FD8905F107081AFA88F0B0F5005F5FD8AA00BB880490F888A8
:204F180049461FFA88F98DF82D20C5F3851242EA83128DF82A00C0F301208DF82C209A0878
:204F38008DF82B203A7A05EB0A07B9F10D0F40EA82008DF8290045D23A482A46029700F121
:204F58001C06304611F0A0F9DDF82900711900220027039170519DF82D000871681D81B2EE
:204F7800304610F011FEDDF8291032464B46715196212C4D10F0C4F903998DF82E000B98DC
:204F9800C1F80300204651460DF06CFD04EB4401049A28700BEB81018A83BBF8061041449D
:204FB800ABF8061050B1029881B220460CF00CF92F7803E0012700E00527377038460DB04B
:204FD800BDE8F08F894608462946002210F0DCFD0DF1290105220FF073FE96214A462B4697
:204FF80010F08EF951468DF82E0020460DF03AFD3070B9B220460DF1290207230DF032FD3E
:20501800317851EA00073770D8D104EB4400049900270BEB80008183BBF806004044ABF8EC
:205038000600CBE7A80E0020E83700202DE9FE4F1D4610F0D2FEDFF8BCA183464FF6FD783E
:20505800DAE90010494518BF084660B1B03010F027FC40B19AF82400CAF8209040F0040051
:205078008AF824009DE00FF0D7FB002866D006466148CDF808B0DDE90CB811F08AF85F499F
:2050980008F0200EB1F8540001306FF31F30A1F85400B5605A480025C6E903792268D4F8A9
:2050B8000C8086F83250356275620BEA000C207C72632279C6E906CEC6F8408086F844000E
:2050D80086F83820B1F8541086F83350D4E905533186A168C6E91253F163A18BA6F850106D
:2050F80028B9B8F1000F1CBF012086F844004AB9387B00F00F00022804D1012086F83800B6
:20511800B8687063DDF808B00822FF2353FA82F23C46D0B2904202D06768002FF6D12088D5
:2051380000F47C40B0F5305F0BD196F833000022082340F0100086F8330004E008F10108B2
:205158002FE0002202234CEA03004EEA02012B4DC6E90601DAF82000484507D19AF8240032
:20517800C1071CBF00F0FE008AF824002548046854B1A96CEA6C05F1400005F138030090A0
:205198003046A047033013D1FD209AF82410CAF820904FFA80F841F004018AF8241010F081
:2051B80037FB584611F011F80FFA88F0BDE8FE8FB6F83080B5F85410414501D010F028FB61
:2051D800C0B2012801D8FE20DFE7002089F8F40096F8330040F0800086F83300A86BB042A3
:2051F80005D0F068007B00F00F000228D9D10AF003FED6E74407002030380020E409002064
:20521800FFEFFF9F081100202DE9F84F834607F04DFB0546DBE90001644A664E10606448BE
:2052380001603046302110F0AFF9282230460E2D08BF3022DBF8081011F026F84FF40040E5
:205258004EF28001DFF870C17084307B624640F080003073F08A084320F04000F082DBF879
:205278000C0090E8FA00FAC29CF80C0040F080008CF80C00DFF844C1DBF80C00624690E821
:20529800FA00FAC24E4D9CF80C00DBF81010202240F080008CF80C00284610F0F5FF00200E
:2052B800A97BEA7C474E28821020E873287B41F00801A973DBF8141000F0700080302873E7
:2052D80002F0700030228430E874304610F0DCFFF17B88201C22B073307B01F004016A31F0
:2052F80040F08000F173384930738968D1F80011C989318345F6100171833449316240F20B
:20531800FC41F183324EDBF81810304610F0BCFF307B717B327CF37D4FF4FA5875602D4D7F
:205338004FF003094FF4207AAD27C6F8188086F81690A6F814A0777400F0700083303073EC
:2053580001F0F000DBF818100330707302F0E4001C221930307403F0F0000430F075284658
:2053780010F092FFDBF81C001B492A7CEB7D6E6085F81690A5F814A06F74C5F81880086041
:20539800287B697B00F070008230287301F0F0000330687302F0E4001930287403F0F00034
:2053B8000430E875BDE8F84F08F012BDD03F0020D43F0020D83A0020B43D0020CC3D0020C3
:2053D800543C0020083B00200C01002000C42264F03C00200C3D0020CC3F00202DE9FE4FE8
:2053F800DFF8C0A1054600208B4600928DF80B008DF80A509AF8050030B90AF1390010F06C
:2054180087F901208AF80500A5F1FA00052808D8DFE800F09191620321269AF8140001384B
:205438007BE0C5B10D2D18BF1B2D00F084807F2D1CD1BAF9141001297DDB8AB20323481E7C
:20545800B2FBF3F303EB4303D21A022A55D0012A61D1F02252E00AF1390010F059F96AE0BF
:205478000AF139000EF06AFC012062E0A5F130000A2803D3A5F1610005285CD8BAF914002C
:205498006FF00201013890FBF1F10144C1F34600C9070AEB000494F839000ED100F00F0041
:2054B8000021102284F839000DF10A0001F044FC94F8391041EA00100CE000F0F000002196
:2054D800102284F839000DF10A0001F035FC94F83910084384F839009AF81400411C2F2874
:2054F80008BF0121C8B20322B0FBF2F202EB4202801A08BF0131C8B21BE00F226FF00203AF
:2055180090FBF3F30344C3F34603534493F83940224383F83920C9B2012908BF2F20C1B2BA
:205538000322B1FBF2F202EB4202891A08BF0138C0B2AAF814001C4C0195002602AF4FF08E
:2055580002094FF00008102E1CD00AEB06003946022290F839000EF095FDDBF8000021468E
:2055780050FA88F010F07CFADBF8000008F101053946022250FA85F00EF0CEFF59FA85F80C
:205598000136E0E7019858B1DBF80800074910F067FA009901200880BAF8140001304880C6
:2055B800BDE8FE8F88090020730A0000B90A00002DE9F041664F0446DFF89881B868D0F892
:2055D800D41091F8835098F8001011B110F03EFDB868016C096809B910F038FD5E4E012014
:2055F800062C347088F800002FD8DFE804F00404321D354A6100594800214170B868026C43
:20561800D0F8D4101068564AC08A40064FF04E0058BF2520085C107064BBC97851B30228C3
:2056380028BF0220107025E000214C48012D417008D1B86810F09DF9C07B022802D1002049
:2056580007F02AFE0CF054FB43E0B86810F0FEFC3FE006F0A5FE3CE0424800213F4A017012
:20567800B868006C006890F8691090F86A0051703B49087004F04AFCB868006C006840BB45
:2056980056E0012D25D1354800214170B868016CD0F8D4000968C98A49064FF04E0158BF68
:2056B8002521405C2E49087000200FF0DEFF10E0B8682D4A006C016891F86D1011802B499E
:2056D800006890F86E00002808BF012008700DF08DFA22480078A0B9BA68106C016829B924
:2056F800D2F84C058047B868006C01684968204A097801F0200111701E490068406880781D
:2057180008703078062813D8012101FA00F010F04C0F0DD010F053FD317802290AD1832150
:2057380088F8001010F051FDBDE8F0410DF028B8BDE8F0811049097819B9104909780029FB
:20575800EDD0022188F80010BDE8F04110F03DBD0C010020F83F0020FB3F00200D0D0020D9
:20577800F93F0020051200202E380020FA3F00200140002002400020F03F0020F33F00203F
:205798002DE9F04F95B0DFF8B8A10546DAF8080010F00CFA0028069000F0848005F118003C
:2057B800EF7D08A90CC80CC10078087010F007FD0646DAF808000DF12A01D0F888248120BB
:2057D8009047A87D00286FD05E484FF0000BCDE9007601688088ADF84000A88A0F918DF885
:2057F8003EB0ADF83C0010F09DFB0FAFD220394690474FF6FF744FF00008DAF808901FFAA2
:2058180088F0D9F80011C988884250D2A88AD9F888243946ADF83E80ADF83C00D12090479F
:2058380018B9BDF84000A0420ED1ADF84040A88A3946ADF842B0ADF83C00DAF8080010F0A1
:20585800C2FB08F10108D8E7ADF80800DAF80800D0F88824D42002A99047002863D1DAF813
:2058780008000021D0F80001827A06988A425BD000EBC1039B88A34204D0AE8AB34201D004
:205898000131F3E7CBB29A424ED040F831B0069800EBC100A98A818010F044FBD42002A9F8
:2058B8009047C4E71A2446E0DAF8089001E0DDE9007600203A468DF82E00A88AADF82C000D
:2058D8000BAC08A9E01C10F0DFFC0120D9F8942421468DF83800D020904710B10446069833
:2058F80012E0A88A29461022ADF83C000FACA01C10F0CAFC28692146149010F013FBD32010
:2059180090470446069834B108B110F064FC304610F05BFC0FE008B110F05DFC304610F06E
:2059380054FC002407E00698019C08B110F053FC10F098FB1924204615B0BDE8F08F00BFD3
:205958000C0100209E2000002DE9FF41674E002003900290B46B7CB3F06C08B9B06CB0B10C
:20597800B06C40B12069B16C0969814203D194F83300C00601D400270AE0B06CC0684088DC
:205998000028FAD0B06CC06840880128F5D0012702A887F0010103AA08F0D8FC80469FB921
:2059B800B8F1000F10D00299002900F0898050480FF058FB002706E04E48022110F049FB86
:2059D80000274FF00008002414B34B484568FDB1029888F00101002818BF0120084317D101
:2059F800B06CF16C039A87F00103CDE9003206F1380206F14003A847012863D0022807D15E
:205A1800B06C012201230069B16CB1F9301062E0B4FA84F187F00100490908434ED1374883
:205A380021694068814203D032484FF4806143E0029988F00100B1FA81F14909084304D122
:205A5800B06C10B9F06C00284BD008200FF01CF994F833004C25C00658BF482506F13800C5
:205A78000EF0C4FD7051264BD4E90601C2439A60DA681043D860C843186058680843214698
:205A980058600820E5680EF0E7FE28460EF054FE288843F60601411A022906D3B0F5C15F0C
:205AB80003D040F60201884203D1012029460EF0D3FE10484FF0804110F0CBFABDE8FF8183
:205AD800002781E70398002818BF0446B4F930102069012200230092002202F077FFBDE8BE
:205AF800FF8108200DF0FAFCBDE8FF81E4090020743800204407002008110020DC0600204F
:205B180008100440F8B50C4605460EF003F90646002840F0B580002C00F0B18020680028F7
:205B380000F0A8805A4F4FF0FF314FF0FF3638690FF08EFC0020002104290FD007EBC1037C
:205B5800D3E9132323B91AB9721C08BF0E4603E0A24200F0918001300131EDE7711C00F067
:205B7800918007EBC6010128C1E9134574DB24D14849BB694FF0000C4A681D68156003F134
:205B9800100501224968A1F814C08B61C1F810C0D9601E7A06EB460605EB860606F8082C66
:205BB8003D4A197A01EB410105EB810141F8042C3A4A01F807CC41F80C2C364900EB40033C
:205BD8004FF0000C4A6802EB8305012285F814C04D6805EB830585F815C04D6805EB83051B
:205BF800C5F810C04D6805EB8305AC6104F11005267AD1F804E006EB4606C4F80CE005EB9A
:205C1800860606F8082C227A234C02EB420205EB820242F8044C214C02F807CC42F80C4CA8
:205C3800DA1C02244B68012803EB82031C751C4C4B6803EB820383F815C04B6803EB82034C
:205C58001C614B6803EB8202164B93614C681ABF207A013003202072C7E906440D490026B2
:205C7800207A01380861002002F0E6FB386910F0BCFA05E00F2603E0386910F0B6FA0C2606
:205C98003046F8BD386910F0B0FA0D26F8E700BF2C050020D00C0020894B01004C0F000028
:205CB8005F0F00000D1901002DE9F0478AB05B4D2868416E02A88847594FF87918B1B8793D
:205CD80008B10020A6E010F07AFA564E80460024307880074FF0000005D47D20002106F050
:205CF8006BF88DF81840DFF840A18DF80C4002940790DAF8141009B130788847DAF80C0091
:205D180008B180470890494CDFF8249100200590217BE27EA0606080D9F8080001F0700166
:205D38008031217302F08001D0F82824F4206331E17603218DF8181004F11C019047387915
:205D580078B9307880060CD52868C06B8047217BA060029001F0F0010231217301218DF8EB
:205D78000C1029683348314E344B0C6D4FF08071006801913049009102AA3146A0470546E3
:205D98002F48B5F1FF3F058035DDB879002100240130B871787901307871FE60F87901301E
:205DB800F871022008F0D2FE3C712648D9F808200188D2F8AC30D2F8D4201C7841EAC411E3
:205DD800D48C0180D2E9117193F800C0538D7486C481C0F80710C0F803708381508DC6E999
:205DF8000A710CF001013086308B20F0800040EAC110308306E0DAF804200AB110F04DF986
:205E180010F086F8404610F0E0F90020B5F1FF3FC8BF01200AB0BDE8F08700BFA83F002045
:205E3800180F0020F13F0020881D0000003900200C010020EC1000202000430011360000C2
:205E5800FA380020F43E00202DE9F04F8BB0DFF890810446D8F808000FF0A8FE0028099086
:205E780000F0B4804FF0000910F0A9F9009001AEFF270025D8F80800EAB2D0F80011CB7AE0
:205E98009A422ED2D0F88824D02031468DF80650ADF80440904710BB9DF8100020B101282E
:205EB8001DD19DF80F1001E09DF80B10B9B100284FF0080008BF0420002156FA81F2CBB272
:205ED8000332984202D917700131F6E7D8F8080082F800903146D0F89424D0209047013554
:205EF800C8E74FF6FF7701AE0DF1140A4FF0FF3B4FF00009C9885FFA89F2914268D9ADF8B6
:205F18000620D0F88824D1203146ADF80440904730B1D8F8080009F10109D0F80011E9E741
:205F3800BDF80800B842F4D0ADF81400D8F808005146D0F88824D4209047002840D1002509
:205F5800D8F80820D2F80001C1888D4216D2D2F88824D1203146ADF80650ADF804409047CD
:205F780028B9BDF81400BDF80810814201D00135E6E7D8F80800D0F80001C1888D42C8D1A9
:205F9800CDF820B0CDF81CB0099AADF81A70ADF81870807AC1000020814211D013180830E2
:205FB8009B88A342F8D11118002241F8082C09990844514620F8047C0FF046FE9047A8E77A
:205FD80010F065F810F057F8192006E01A2004E010F05DF810F04FF800200BB0BDE8F08F25
:205FF8000C0100202DE9F04F8DB0DFF88C81074690F8309016468B460DF126019A460FF020
:20601800EDFD0FF030FF0AA98A20904797F8250007F1280198B10925022808BF0525019123
:2060380001282AD1D8F808000DF11C084146D0F88824892090474146DFF83C811FE0B9F1EB
:20605800030F24D0B9F1020F24D0B9F1000F46D1BDF826004FF6FD7290422AD80191B7F8FF
:2060780044108DF81200000A05258DF81300080A8DF810108DF8110025E007F11C016C1E60
:2060980004A8224610F000F997F826101DE004A8019115E0387C40064CBFB7F84400B7F83F
:2060B8004200ADF81000019105250888ADF8120009E04FF6FE72904211D1019104A80AA98B
:2060D80010F039F809256C1E002104A85A460155D8F80810D1F898342946984708B1F32065
:2060F80046E0B9F1030F1AD00199B9F1020F19D0B9F1000FF3D1BDF826004FF6FD718842A9
:206118001ED8B7F844108DF80A00000A04228DF80B00080A8DF808108DF8090019E002A83F
:20613800019913E0387C40064CBFB7F84400B7F84200ADF8080004220888ADF80A0008E0D7
:206158004FF6FE718842CAD102A80AA90FF0F3FF0822D8F80810DBF800003346D1F8A444B1
:20617800CDF800A002A9A047002818BF6FF00C00C0B20DB0BDE8F08F0C0100202DE9F04FD1
:2061980089B00646129803F0F00403F00F0A4FF0000B002818BF01200392103CB4FA84F454
:2061B80064092040D4880290107A92886FF39F2400F03F0024036FF39F2244EA00601044E8
:2061D80001905048007804AA0092C2B21FFA8BF3934280F08F804C4AF3B20BF1010B92781A
:2061F80093426CD088B2172867D3A1F10709F7B204AA1FFA89F43846214607F05DFC9DF86A
:206218001B8008F00300022826D1BAF1030F00F276800398007ADFE80AF0140205109DF874
:20623800181007E09DF81810884215D10398BDF81610C088884204D00EE004980199814287
:206258000AD1029800284CD0129800218368828904A80AF01FFFE8B15FEA48700AD5BDF8BA
:206278001E00844202D9A9EB0001BBE7384621460AF0AAFF00204FF0000B50F029FD22494D
:206298002048C97800780131B1FBF0F202FB10160021A7E71298808818B3129BDA88196826
:2062B8009B681A440B7815789D42D5D1013802F1010201F10101F5D113E012480078F1B27F
:2062D800C2B251FA80F1013991FBF2F303FB12160D4AF1B2490051FA86F102EB8101898B1D
:2062F80073E7009E039D96E81F001FC5002009B0BDE8F08F0399002088810A20F7E704207F
:20631800F5E700BFE73F0020E83700202DE9F04788B0DFF87C8104460020079006900590C0
:2063380094F82490D8F80800D0F8A86407A906AA05AB2046B047002851D161686669208961
:20635800891B00EB010A079828B9D8F80800D0F84C0580470798D8F80820069FA169A36DFD
:206378001FFA8AF51530D2F8B0C4B4F85C200437CDE90257CDE900264A46E04778BBD8F8E2
:2063980008002189D0F80C0110F80900081A208194F8600028B1D8F80800D0F80C132046A0
:2063B8008847207B00F00706032E11BFE27B60680278E2733146D8F80800D0F89C344846F4
:2063D8009847DD2801D1DD2009E00546D8F80800E27B3146D0F8AC340798984718B1607053
:2063F80008B0BDE8F087DC2D03D10698007C0028E9D0A069013037D0D8F80800D0F88C2448
:2064180004A971209047D8F80800DDF8108000224FF02C0C0027D0F800E1DDE90609BEF81E
:2064380008108A4222D002FB0C83994516D19EF80A300027FDB29D4212D2C66806EBC506CA
:20645800B688B24201D00137F4E79D4208D0C36853F83530A5699D423B4601D30132E0E740
:206478008A4204D2DB20BBE7DB20B8E73B46A269C068D9B2013240F831200698C06850F822
:206498003100013002D105980121C1700020A6E70C01002070B5604D0446A8684169497F47
:2064B800002973D0D0F8D420B4F84210D28C91426CD1D0F86C1304F128008847002865D0A0
:2064D800A868002241694A77D0F8D41091F8291021B1E868816A02208847A868006F90F894
:2064F8002B0018B1E868816A01208847207CC00608D5E868816A10208847A868D0F82813D9
:2065180080208847E868C16B20208847A868D0F8FC14C068103088476268A868137852781B
:20653800416902F00F064E76C2F300114269917603F00F01426991771909D0F8D42082F848
:206558002C10D0F8D410426991F84F30927F0F2B05D09A4203D26668F67806B91A464A739F
:206578000022C16881F83020D0F8D410497B0F290DD14169C97E022908D1D0F86401804780
:20659800A868D0F86C01BDE87040004770BDD0F80C2520469047A9684869C07E022814D190
:2065B800C868D1F8FC148847AA684FF47076D2F8D430D2E90301D2F8F0245B7B31F8131023
:2065D80006FA03F3591A9047A968D1F8D400D1F8B431228990F82C1002209847A968D1F8BD
:2065F800D400427B90F82C0090420FD04869D1F8FC148847A8684169D0F87C018860A8683D
:20661800D0F8F024406941699047A968D1F828131020BDE8704008470C0100202DE9F047F9
:2066380001281CBF6FF00100BDE8F087DFF840A1DAF8340101281CBF6FF00400BDE8F08780
:206658000220CAF834010EF0F5FA012001240DF04DF838B1CAF834410EF0AEF84FF0FF3062
:20667800BDE8F0879AF85B419AF85A119AF85901404D002C18BF0124002918BF02340028BC
:2066980018BF0434A86A016801208847013818BF01209AF83811B1FA81F1490910EA0109E9
:2066B80002D1002002F0E6FFDAF8080010F0010807D1314F286A8168384688470428F9D000
:2066D8000646404600214FF0FF3203F0C3F92B4FB8F1000F0AD1012E04D1286A0121426821
:2066F80025489047386840F00300386028684169204688479AF8550120B12868C16A4FF4AD
:20671800806088479AF8540120B12868C16A4FF4816088471A48012101601A48002139505B
:206738000320CAF8340120460BF084FE0128FAD1154E306804200CF0D9FF04461348012592
:20675800B9F1000F0560306802D1012002F092FF0FF008FA08200CF0C9FF0443CAF8345179
:2067780018BF4FF0FF340EF027F82046BDE8F08720010020B80100100040034024220840FE
:2067980028200860E8FDFFFF2C2009400C4009402DE9F04F8DB0DFF868810290D8F8080068
:2067B8000FF004FA0B900DF10C0A07A800270AF1030400F108050FF002FD0190D8F80800D8
:2067D800BAB20FF019FB80F08780AB4601260025C97AEAB28A4224D2D0F88824D0205146D2
:2067F8008DF80E50ADF80C70904728B1D8F808000135D0F80011EBE79DF818000026012818
:20681800F4D19DF817000028F0D10020082805D0215C0130FF29F9D00026E7E75D46013773
:20683800CCE7002E5D46FAD14FF00009D8F808005FFA89F1D0F80021D2888A42EFD9D0F85F
:206858008824ADF80E10D1205146ADF80C70904710B109F10109E9E7BDF810004FF6FF7122
:206878008842F6D0ADF81C00D8F80800D0F88824D42007A99047C0BB0299284608220EF03C
:20689800BDF978B90FF0F4FA284688470028E0D04FF6FF705146ADF81000D8F808000FF020
:2068B80092FBD6E74FF0FF304FF6FF750A900990D8F80800ADF82250ADF82050D0F8942498
:2068D800D42007A99047D8F808005146ADF810505D460FF078FBA2E701980FF076FC0B9866
:2068F80008B10FF078FC002007E001980FF06DFC0B9808B10FF06FFC19200DB0BDE8F08F6C
:206918000C0100202DE9F047814608688A469046D9E90045476806894E48E1680EF098FD51
