:20000000A03A01201D96020039FB021039FB021039FB021039FB021039FB021039FB02108C
:1C00200039FB021039FB021039FB021039FB021039FB021039FB021011FB021002
:04003C003D7A020007
:20004000AE4ADE6BC26917EDF57217D6A01932CD99DE02CECAB62AF45A49BA30DD5F150B56
:200060002E532CC71440F7324F1C214919214E562AE5E29FD5370E09972E2320AA3D666C68
:20008000E5C65A018A6732C65BAFCCCC522B1BDEFBA39C51BA9A36BCE3D435C13D9ABAB09A
:2000A000EAF8A82D63A84DBAE85A26122144C9E5D5D134AC43FCFA192F980C912BC3DDC91A
:2000C000205DE5C30DA397BB3EE450AA9807BBD696F32DF5D2F829E2A120001E6D715C1DF7
:2000E00053AA44AA30C7D924F8912340AF9BCE5CDEBDB3B42F74CFD64A601B3A27A6721B1E
:20010000FBDC3FC6C9CADD53BF17310E24A63F9AAD94A2200D6463132366E90B48EA9599C1
:200120001F319299D46DE4EA7223E3613FC245122AC9AC1406C2F9AD19A21D6A64F0F53424
:20014000F2E6AF35C42C1932B00677692EDBB5A8B11355D1350944DB35F3BEC39AF86910B1
:20016000D7DE1FF16DAF96D7FF2B236D251299EB291C6E129559683DC5E5AB109C72B8D069
:20018000103C750DE8563C60AB3D3D9848A42EFFA2B0A0F8A5C1B4A1A7D39D1E0B2C28FAAE
:2001A000F43AA0B70C592B1E25BA99AB6DBA0B125A8D2E5DB4393CF68DD4C4C70D49B81FFB
:2001C00064ABA8A4ED671EEAA1294B5BF11395CE9612FF0A0C38F25DE925E6C9DA8C5329AE
:2001E000E0CE271103E51B35A4CC4F29DE1CF21714BEB34D43E30340C3F34C394C962DE28F
:20020000C63401DC410A0712CEF9A93A1BECEC50BF2C5C44B412A6F7CB1CC317DC219FA3C8
:2002200002283805FB4D0A0B4AFCE5DC4208AA354BBB5E9CE82F59A862D323C0D928242055
:200240006CC4B1370657B9AACC252DED023EFB9AFF651D6EAD4A54F6B22C9F5CD245BC37D3
:20026000DA2C23BEDEC31D8F2A4DCA220633411EA56D4806A8439AED1A07CEAA2E9A0721F4
:20028000DA91FAAF3D9434B0DEBB0840901853FC6FA9B4ED62C01D741546DA0C471434126F
:2002A000EDC0FBCB2DD32203A109E8EEC60316621B43F0C0B54E6FB0565E15A123BEC5D4D1
:2002C000C63C3AA7F29BE9BD0BDBF5CB0858709BF5965CB7F04333A5F73BF9BA23F8E74E19
:2002E000CEE2E5A9DA9EBAD3D32013A53E400C31FA30BEFFEAF7D3D05036E8C29AD3131624
:20030000C85106275DDF29900C5A9AB16B593072E81E5D601AF7234CEB0769DC1AEAB06AF3
:200320009DE36C9753D2D932BB6E632C0CA9A4E0351B192623A81E164BB89053C6E03FF2CE
:2003400002A46DFF110173BB39F05428089BA066EBFC16ECB934C63F2B4068F26BF6F0A963
:20036000BF133DC6CDC9CECD61A7A2A26DD5575800746BDC0161EF9ED1ABE34AFCCD3AC024
:2003800062AD2E3CA2119AB2A722DEDAF120403C42DEB52F9C1C6AAD8CB3E7FE96CF236AEE
:2003A0004714D260FCB14497FAE3A10AEB48EE4869943F0C441144C9CBCC4D4C392641DEDF
:2003C0000250BCB0E73EC5C76665CED0EA1938303DB22624DF92C6B2C568D7FFA7F7EB111B
:2003E00014D1314A48FC54F397F4CFB66E6FCEE35ED0B06434E2B66A0710C2D9E0450ADC3F
:200400006521304DDA03706218F249D8620DB56710CE6037C4AED369A5E6A71C337746080B
:20042000B44567F710AF137507E5EF4E11CF5AF2553E8E43F7F66AEA034F6956DA2E0D2AD4
:20044000A35905E571A7083119C2E838C3BC15D84740B10F71B4BF40A108059B622F9ED04B
:2004600072C6485CB500EEFDA2CEE82EBE39E4FE1331353CC3A3CC05B7DAB13DE3BFAE6D79
:20048000C9FF17FA59EC4E225A3951EC3AFCEFB3EC991AEABAE06F21FF92BE236A30B3E3D1
:2004A000A2692EFAE6F55F0F552D23FB5CA4EABAB81E3E4CB5E7EBDE4C94A8591BC911D809
:2004C000BA5ED3F321C901E468390A1ADD57C074E8C6CC1B1E0D92EFA6E0B23DFC9D992A30
:2004E00045321BD35DBD35AB1FD1E1BAB4BFD8F8184C480EE4E9B4EDA7FAE12DBD3F0A3CB6
:20050000640873A1D908C2AD1AB1594E6530C551119965AAFB61511CCA3616D1FC9BF2E11B
:20052000F9700BA86D0EC3FFCF1DAF60E25969E390942DD19BB3D26DA36B119BA4D18CD1A5
:20054000B9D862A1CCD4B13040DA972848510DE034C39AB1E3E286F95D54D62BD7CCE6E680
:200560003B24C5855326E82B440C3C0B3F5268323C504E2A43FC522448A0E156BA65A85B8A
:200580009AA3F328D8A962B5A63A712CCDD7C3C74CEE6FBEF549B371AC6F420BB9985FC619
:2005A00024D76A93C82208ED4E0009650A536FF7AA47403763F9062EB6E5C8561477DACF00
:2005C0000764B85871BFC229A115C471F43E3DF912EE6409D8D2FF2930F8D9A59455ED9BDC
:2005E000BF46D520326567F01B55A45237D7E32BB51F3CD7435B18EE9B17FF08C04344AE58
:20060000E8FAECEA2B58A7C4A7B1156A62E2DE6F911461DC95F08D3658A60437DB48FFF552
:20062000C0D7B31AB322F6092257F10BD3E9EDD952481023221D00337A09DFAF227219FE90
:2006400052F401FCD945B475B76619DD31DC0942ED64B7B02CAC5C00A3A0D0FB63B6273635
:20066000C864234CFA5AC029B63863B24EF94B547B033D6F710D70BD043FEABAE2B6DC6B1E
:20068000AEBCFD66F2F9D9D5914BA1E04E4D544123429C522FE86552520DC08932D9B40FD0
:2006A000D6AD06AA0311D969340851EB8EED3EEBE19364FD4B23F06821240252CCD9F702C3
:2006C00018C76051513CE454C03BB699BBC20947F2929EB3C219224EDBD5F91362D9AAA34A
:2006E0000EBE72A693BE06CE6904012A2F49DFD4C3C1DD721572C8C6DD1E2C68BBCDBD3F33
:200700001AE247F699932E94E2B91B1DC9FB4359AC282A30DC4D98142F966BBAD89DE65CDB
:200720000C6F70B417260B45615C37F99EA93D6230D0FAFAA8D8E18889AC29AB3CE5C3A44C
:20074000FEFA495CA75C8D882F3DB3DEEC5A66F98835F203594489D9B3DF54BD8BB44B67FD
:200760003F5168B2D88C578AEFE732155EAAB109DAF5A20005459065035DF3744616BCB765
:200780000BA6C91BEEBBC9C7F0163F342EB2E32513B36A4566ADE2ED152E250AD2F5EA238D
:2007A00009C708F1C44AD83FA85C01F9386EDEF2CB41F3B2CCCFA5576BA2A31DF8670ABB9E
:2007C000719AD14EE12701E5D5C8633A101A3C0700E2DACAD10A034FFDCA71A9E3EB692966
:2007E000C3E7FC533FFF439DF9AE0932B631F6B1131719E6A109383411C3EA096B296B511C
:20080000209FADECE4D4325827AB2F4BEE206C6F02D927D856B4D94905179DD0B7A66C723F
:200820000D440B0B33DFCF02BD180039BD14485BFDAA22133D47D76CA4B2301E355B1D2CCC
:200840001E9C00F8C42D488B60B9BCC41B59F52536324397C5ACE7E2250762F5DF06A99BD3
:200860003C912E1ACAA7B700656511A639910DF8FF09324E94DAAEF324CA66E51FEFF3BC5E
:200880002C5EED020802F71A6A0AD828D32F4E91585908340D91C727621F3E2C62EE95D94D
:2008A000FA0155D74DFDF9F4243B6CE2940B05E6C9D00E6A922E18A60160E694A1469AB701
:2008C000630CDCCECEF0393C3C3BAA4F6052B720DCB12DAEDC4CB8CAA8B6040DF68B3F365C
:2008E000561B01D2DB634DD0C359D2216FC0F38E65F79EC32AB11764561BF075F32EA810D8
:2009000034D6A0E846F4250739A9C460703F2E5EA5F9111060A8121A96A364B0B0F9DFB71F
:20092000C04955C1E920CF6594E7A74AE30FFBC6A6152375DFBB1503FCDDF2615B1FA3AF3F
:200940006B64D3A6BB6E24C4A54AAC48B4D71A73254DF4ED44D028779BC93EC1B4054E9E35
:20096000C06C4B11B96FA0C9B268BF1927EAEC551673D7A14B4824CD2F9313A2EC67475430
:20098000CB72A811C2AB3F56C93FD906C9730843AEFFF2B4D7481D323846E2FA710AD7BFC5
:2009A00017E8C9B7E2996CED9006C4508CC6CD5CDA31E2A40C4D24C515633D6521F2F3E7E5
:2009C00046E8E8D925068DE76A2A1C3C580044C76566F703EDFC60D9BF16C44434F35CE112
:2009E0002A661CDCAF47E91E030199FDDCADCB22894F2AD963301EF857A567A56C4E9D116E
:200A00009B53241A548EB5EDF2A58C6BDA5F1DE5EA596C1453DF3C4516D3FF6DE84A9C3D87
:200A2000F1003628B4CB6C8BDB8866E400BA64DC2C2DD70945356C4D5FB45A2DDB9C3E5738
:200A4000565DE0B66D666038B04254548A07B3B5A73B38CA8E58F09459B8E7EA4ED46E1C73
:200A6000B4460116F1ADD4A89371ED5FFD49B6E50C64E6A10EDA9D1CC521589AE8FF3B5335
:200A80006A132DBEAED95B9BA533EDA51323FA11D234FB94E2A1B2ABCC016C5C4FB1754403
:200AA00003D949EE57BFD5B9DFD5D0E4EF1ECF933B44AE64AED3F0AAD3D4BBAD344C034C1E
:200AC0005675D3DFFEC1BBAC701B4E28E41FCEEC36D69E60BB9AF82C3540770C26B1B4228D
:200AE000EEFB36ED2063C932083FC84F00262E5161D645B15BD443CD2B5BA2E27458AADF9E
:200B000018BB0C4830473FC958683415C2FDA65C0ABAD5D6E94C018FDE05F64C992132C65A
:200B200046E80C3957A3D9143462612D28AF17B633E94EA6B9B60BB81C2AA6FDCA318BCB17
:200B4000424F1796689EE98A520D1CEC971EDCC8072A665EE6FDDC5BFAD88ECC08E86693FA
:200B6000EEFFFAF2C04F2DEBA68D6C3CACD904A2FDA43238141F475AF2BD6188B4EA00C199
:200B8000BCD1F810360B489A9E29550A42D31E593F25E78BF601FAD7F6FE89D822C94E942B
:200BA00049FEBA0DAC07A38DFCBB5ABE3A0ACEC1203897662468FDE462AF61F19CB7E44204
:200BC000AE3EDE29239918E529FE66EE5197DAD875EAC69543127800345D3539782BA65B2A
:200BE0001E6A5944E1C4DF24465A94D0B3625BBD2F78545F2816044395EA2160FDE6E40051
:200C0000E39F0B275FC1C2432770D520C3B5B5C93E44F9536C39AB40506809DB3FAC6F41E4
:200C2000969A22EDADC89D2AC0A5FCCAC0DC3FBC04A393CC336A5BEB32D7943070AD908C88
:200C40004EA96CA9EE4D5AE3EA47C24342D859E560DBA3B014FB05F8432843048CDA576019
:200C6000E6F26FD72509B9B267A869D5E240B54448E1F01A4AB72529E8EBF6BC26D1AE6049
:200C80004FC9211950CEB314F8F0A6F5E710C70EEC4B64036DD70140A3AEBB712200EA1F03
:200CA000DF916F0DF3B4550106F9A8C912CEBA2CD1E8F8A4583CF73F9857A8ED38DF4AAA67
:200CC00056D0D812355759DADD6D165A50A242286C2D002ADE3EC7D61BF8CE9EDACF2A94CD
:200CE0003A8BB8F6E005A662A793B6F14DDFF3D9EFBFC0E04F9C54FE47F766F4C064E0D2C2
:200D00009F06D5609DE43251D55017B6CE0EE99A9291403050402D6FF09FABEE411055F225
:200D2000AA7317995156453A39E25631FCB5B4DB1BBEFE62AF58A43B18B269C5C9CDD4EB72
:200D40002B13D01262FACA06B6A6ADDAF5180B19AC2DC95F9EBC952CA505A7B53D63FE0271
:200D6000DB572915DC4810C1E5392AF420DBCCFA966313264194D9C49C50F0383606343DAC
:200D800045155895D3D42D8FB7045758A09CB3F52CE6F461AB0AB5FF06973EEB0AF5202B7B
:200DA0005415FC9BD1E603CD9420F606FDEB123921B55DCD6E48915B0FF322716102A8BFC8
:200DC000A32DEF4009BD06C6CFCC64D0DDCAEEA722F260008DF608B5E9DB2BA52BAE5925D8
:200DE000FCC01434991665FB2F21B5CE58105EA70FC5E4A65CFD6095A8593292BBA1F104DE
:200E00004B2F315C99341B963C0E029C9546E991DCBE0BDAC5EA523AB7BEF3249C244B2996
:200E20006E8BEF57CADDD3F66AE15712DEB6C0EA5C8A04A7114198514FEFF734E4A1BF3E5A
:200E400020C02D96DEF0B9F210CCE59CD8F7FA0CC09D2D64173BCC6C58638B611357394240
:200E60000E9FFCAADFDA1CFFE40C8E5BAA1A21102650A89ED5513992E8123C057407D7E65D
:200E8000080EC997B1B1F11F629F5967BD55293E91A798C6AEDF1BFFD345BC6293350625CA
:200EA000FF30BCF838C729D21A0D3796692D34B5A190915B9446623792E6F92D02496FC337
:200EC000B9451FC3FB0A4B3A29E30FC904FDBE9F0EE0E62F1207BA0454061D1D963E9E94F2
:200EE000A814216F5DB5478ED6412D0FD3CB219050153CF7111AE1CB19EAE597FE6001438D
:200F000016D2D41BF424E098EE16BE960346BA0AA66A6FB0C50CBF5C4A17EF0300A6A970D8
:200F2000A0B600ABD5ECCDC2A20B1AB8B51DAC996FFCC55DFB8E3BA1E49B0E1F3516E914E4
:200F40009B669D394CC1CE5D32F55E4E5763FAEC3BA3D1D2F61963414A3204A899D1A3D8CE
:200F60002247330E6CFF2DF9C192ADFC20B72943981CF350D9499B0D674E0D1DE096514E42
:200F80009E3DA692D2512A6AF4D0E0AA321C95ACD9E0F1F43B3F6E5F49C7C3DAA7B9900820
:200FA000EA3CF962FAE3BFD045D16AFFFEFA3A1207CB03378EE8E5FAFF5B59F2A3DFB5FA4A
:200FC0009950CC0B18A711508D5D979FE446F16DF40FEBDC97AA1B3273CEE0419CBED02A7B
:200FE000FF921D2263C8FF662BD9C824AC70243EAE5DF2E5701397F257E9DDBBE73EBFB1C8
:20100000EB1926CCBC57979CFEA066F6DEE56568C31FEBE5709751625B19602CE1D3CB40DF
:20102000EC4C2F63179DC098E8AF220EAE56050AD70122A73DB157CBE071BE6E7340DB083C
:20104000B32A21D9DE2F6EF0464F273F59C3325992B20453AE330B72DFEBECF08DF6EC9806
:20106000568B0CA43348E964CF6DAA40436B5F3DAE359369DCF101B962B50188BA1837CFC9
:20108000F2B836C88A66BBA749F7F09A0A22F162540F1CEC1307D08994E88BB39B0114F1D4
:2010A000965068BDD46E3EF7EABDBFAE5E260FD64AEFD7ECBF15D2CDD4FFC6469234E01924
:2010C00023B143C967656406B93F283B41F4D404EBEBFDE117160DEE9B31ED34ECDEEE0F02
:2010E000C033D0BD1544BD6AC431C7CD1F525C1FEF1E41DF205095CE57491D2134C93EE57D
:201100006864F16391440C5E889C37328B2C07E0D7E53238C0106843DD51FD532E8F010563
:20112000D8E93CBD029BEC1EE308E0B3270436DA9DBA19DBD81EAA6701BF5B962D2C60E4F5
:20114000726EB9015543D4CDEDA7545E44B46A332433DED0B7ACEA5C620D1150FA5DE55DCA
:2011600011F4D2BDE69B9AA6B560B69CBCEF657665933503C5D75CA149054E2C769635FF5C
:201180001A993617A94A1CA7E438B753F9BC403B9E5F9AADE2BA6CF42A1C1441ACCC0902E5
:2011A00036A61828DC1E656FF23A18EAC5A9BD0EAB236C219331AB211602E65499A2F297DD
:2011C0006B3C2602AEF83C4702A03469F31F0199BA54E215620424C412CBBCA5E8B0B54D01
:2011E000E52B2B45936FEB5CF46CA0C4E730BE52FCC41235DF3F6B2C104E419158D707D247
:20120000C82131EF630AC9404E2ACFF5340356A592110E9345AC2769F83B6463DABD28D58E
:20122000BAD2C026D0AF54A40D0D3AF420CDC64E8FDBC694CC95A0133D42313552FAD3C0E0
:20124000C899A5559BBB344188134CA71E3BB86031BC2CBD9E055E0FC294DD489D42EB55E9
:20126000404C0D6664F0B94A0D9C2B996326E41E04ED50CE2D020451BFADB6C63C344E9354
:20128000A50FB71B9837B96521CA0F923BD34202D82C91B9EB52260DD80D52B03651C90107
:2012A0001E2E63A23993F7C1259F32F60AC4545B68319AB024710C6369D2A1F7009D0E5239
:2012C0005BF522B00C2DB5D1D0EC1406D154C61CC557E4C5BC6BF6A4B4CD95B4D120E41516
:2012E0005FD0496694CDD4BFE80D09FCB4C7E4F2AB0861A02842D75829D6AA5DD647103C15
:20130000320CE846033B1B47111BC2C24220BC013CB056A12DDC4903E22B4908A662BE4155
:201320003320EBB4AD1620B49F9FE24DC81E5911C10134C3F99691AAA6B49FBD2BD2EE4BF8
:2013400009C2612A2F39463B1C5393F00A6AA9AA213E62199A71EF2B59047122A05E696FD0
:201360000750CB1A22746C32CC44B2132FE8B5D1A05BC6119F1D9EC7BEAC28AC16F32D60C4
:20138000B3C914D302AFD8B5A5BE2245C201F98C62ED32043851524416DB63B4E0386A521A
:2013A000BE15F022356649E2BBB20B0640BDA1F32A606047F2260E3F28F4EF42052F5EF30B
:2013C0008DB3B45AC76A60EA403F3F10A7CDAB36F90D0C67474F9DF4764EE40E1DC55EA0EB
:2013E000A09F254CB5B536B8E0EBD14B17B3389ECD4FE13C27521518D1FB1723ACD6D65BC6
:201400001444F48DBAC154EDD6C5F3DD11CCB4D7AD2AE16B5308A05444455E8F6BB0AE4E65
:20142000E98F40B7522B5E3A690D6DDA59FFE8CAE802BC71F9C95392A3C8A1355613EC6E9F
:20144000DCCE3EB4E2EFF62132D7402435C2D72EEA6100BD14DADA9BB1C0DDC872E6EB0CCF
:2014600015380864E03450B9C0BD35AF2060369795103144B5CD35A46F5BF417E7AFA3AEB7
:20148000A2D9A3D2FF0CDFF523CE181C4E3CB94712DE34234DC85D660C5D2C25E3A9E9ABD5
:2014A000CCE8BF380BE05E1BC7D296638B1B64FE35AE16962C2E852B34932BC63B60E28A2B
:2014C000D1FBC60AD794033F00AEEF8E509BEAA2A8195D1C1B46D1093AC66A8CF909CD1EC9
:2014E0003A92A9125739F6DD5A6366150E6037FBEC9DA963FFBCC996E0F51BB400972634E6
:20150000A3384901FD3BD01A000418B1CA91EE9446CD11EFB332443F970653A994DE5EEC0A
:201520009D42E1B1D61596A9D93A9B42E408AAE35E31D1CB42A1011915AE1E6BD696B7D63A
:20154000C437C0BCA7D86B1B4B2D004C03D60BA6F78C6AE0202E1420A2D532224EB025374D
:2015600095E953945F2E64A423F41AFB00E5689C0350F50AAB2FC024E3E5571B0F2D5FD6A1
:2015800001B6FA20B8E8AD17DEF562AC5ACFEA1E95ACA4A179F0FE3A18C3B1D0B09B277897
:2015A000C63BDE2415E7D0E91CBD58C516FB09E0E5BB08673CD44E207ED748AEA49F083C24
:2015C000744DB86506E4623D966B56F5F5DBEBE2DC29E0769EE0EE9C27DB113F442ED99724
:2015E00037F19D9943F30A4AF2C16D8D30D598936B253B3AD34DF8280525D9DF61E712A8FD
:20160000A9E42B376406B735ACE920083F85E3E926CCB244C6E49F11200A214AB215608CAE
:201620008D0629A0984808E722E4B62B42C2B9EE611465BA279F5E93BCF0F041B2B75C24DC
:201640000CD84D19E14F38A68A01B2A3FED8191CB6F6F81D390AA83D37DC291A18594A2A23
:201660004462ABD93D1BDAE44A1A1A0BB7E6426CADCC50DEB19015C238D6364423499BD92F
:201680001BDC93AC43A9DFF313EFF1E75D42B4AA6B9F5360031C5660BCE758AD6221253865
:2016A000A8C132C0EE5625E9AAC2983EB2043A236023B112548D004A25D130513A0069613C
:2016C00020A7A9BA5D9EC4B2AEB713F85C0B295C690B1904DEAD57F7E4A00BAB289AACDF22
:2016E0009DBB37F9CCA3ABA7D1B629E3637A2BFAB73560D3ED0E23B2B2E3A0F7E1CA1EA880
:20170000372D45CB4715356106B23252F51C395307CD1FF8A6D6D105C54FA098579FFCBD52
:20172000BEA2012B1C4BD3CA5E0524989B4DC793F6A3666D9E23D3EC69D71E0B4ED697B5F3
:20174000562BF7DAADD1FBE74E25E9A6A34BAE18EFC9B1B7D6E06D58E3E216E9529FF45489
:2017600011242C510EB6AC1668E1243AFFFFCD4BE8AFED8B65BDF21ABA3F67EE64208ED8FF
:20178000005216BCFED4D23365F6458C1C5A9F1137970BD19B2C272F1510E0C7DBEC424A16
:2017A0001755A0546D320AC39CD3B5D3A323501DB3B242EBEFF0FCC7A9C4C132B6991545F6
:2017C000D2F6369CDAEB59ABEC3EABF01EE55063963DBA45DBDAEBD9EBCE3AFCE2686475CE
:2017E00000989C3EA1504A9EDB1BE3CFAD2846D1D2C1E219A1AE77F2D1DB229C38E45EA33D
:201800003A476B44425C5E6EB91920EEA458BA1BF4BDED23A7F3D59DE3BDA20204B593E63A
:201820009EA5FE28A508064FE26E9EDD21F86233EBD20DE8B55ADCD797294D71C8C5F454FD
:20184000A216F6DF27F54CFC4AA52FC0CF39FBF8D8C6D42755A1132EC4776EAD469FC9AE3C
:201860009BEABC1FFB6C07155E04323BDDEF98D5A4AB341EDB4409243E07063DB55B8F3930
:2018800050DE99C05A0C2DB22BF35BE742EC625C5D1EF2DB62D69F36245CADF03B9F8E67EF
:2018A000038737421A3CA9CA3C0F3F272AE99A23102D13C0F8FE35FD0D574E28D4A3E3006F
:2018C00068F454E137A408D8606554E4B1DD0FE49C62F811202031B95BA0A5AE1B92BFB0A3
:2018E000D2A38E531F183DDC256A3E3931A1CB4B1BA3A5B7610C3416C568C70972B919271B
:2019000073DBB1B65F492D110B10B4AE4BC3AEC155F462D454764EB699FAB537054AE6949D
:2019200016D85001FBE819F8C5B8D2DFE53B5D9C16F7FA54B5A198ED07AC7670B7B8FF28C8
:201940002008B095F75D48F83042E19554F258FB8FD5F0126FCFFDD86C2E306AD53731DE3D
:201960002B6E3A64012CB7A34FB50AC9C1CA5EAF27BDE25F2BD50FAF092C44A157C990BBD2
:2019800011D54448C06B154E4255531E332497AA04D4E496DCB9E9B0DB1C09BD4709DFB18A
:2019A000A13D0B3CC5F1F9103E22E8F9DF5B3BD3DD9E48EB1F5E786AE44D5A3DFF5521A7C9
:2019C0005FA6B26D34FD0666245EB541C1E4203214BA3AC7E223B91EA7A41A4E583E942728
:2019E000051B233EE547D79C4CEE9BF11D5E50EEDC5C630953E2A015A7E9A63A5A250822A1
:201A0000FAC630D4A3EEF01231B253DD5C5486908F229027C123FCCBFF9B8AEA88A6E90B53
:201A2000119241E153155A256A0C2DB8AC05D8C74196528F55102EDF0F3DF76BE2FE08B9D6
:201A40003533E64911266B052202199A1E610A52BB5AC82924A0E395F22EC457AB61C9E262
:201A6000DE2C671CB2B3E6EA40D834A6B4A1081A0758C1FDB4AAC258C2E4B00819DF5DBC37
:201A8000BF63725DC4CBECF31FFB1BDE37236455D6F49B18EC70B0190D15C7AE18F03FCF72
:201AA000E7572E3B2691BA2C096A1D31D2BC11BDC014943518633328DB25F44D600B951AF7
:201AC0004D90C0E2F10F6C113C9601BE422506B3AE29D826705DCC4B0CF194A65E55F22E96
:201AE000BB3BD1396ED775E2D6F8ABF10EEF6E0FD313704CB050C14E00720B60C77BF9B3EA
:201B0000F63EFD456F6A150C0838DB112903AD99D9B0FBF6C39D9AC0A408B7E3A79BD1DE4C
:201B20004AB4DFF91A5A974CCBE2CE38516F4F9CA12B3D2CA40017BFB213DACC263BE9486E
:201B4000FEAE1B0F239CE423D0DF5A95BC95A1C010F8866732A55EA4244FE0D8460C6B4D96
:201B600058F564EABB27615EEEAE2F47C7B398F26ABE4EFFC2EBDD1A0F060A3AA9BD5107E3
:201B80006BE9A2B75A2E4BDF95E20F8DBAC790CD1FBD14F49A140807D5E7B6612DF84D16F9
:201BA000640F96A1F4CAB212EE0F95BC94B756CC274A59C53C4289A318BCA048F454F8AC5D
:201BC000CF54F2F3601D2897C1A9296B461672644A2209D028C72A022BF427262CBE4F325A
:201BE0002D00969240CCE10317C958D5BE716B68CDA8D82ACE9AD8BFC86032FBEC34B5EF02
:201C0000180D50E9FA74199644A01AF0D69D26C7B5F11F201E5F6363594A7254F27009D926
:201C2000992B3A00E371D4C9459DC12198DABEAD26FEA05A5CCC594BF1F25E6957FA8B356F
:201C400027BFDA26DF5CFA0559D5E6B6F9AFEAB08F9B0BB9DFE0CCC5C9298BFBECF26292D0
:201C6000FE5A28DD671ED6E1C39B082C594F22C025A3021966CA18DC4670A2ACFB984105CB
:201C8000B19AC8459C4594DA4667C3C76DABD6496B299711CDCFAAF8C2DE12E350B8FB25F8
:201CA00005AE320036DF4AFFD668AD26DB0CE9BEA47743D6BCB600675CE2A83D5AE0ECF3F9
:201CC00012DB43EF0E39354103577104C19535BDF66D9F4713034BAE4528A7D768475C378C
:201CE000BDC63EF56A0E8EC32328E3078C30375F6B50F6139B54EEB6ED5332E7DF6CDFF60E
:201D0000531D11F7A2661E975B0731EB61932453334F61CC60C0B243E2E6DFFC5EA3709637
:201D20005CD24D24C9020143D5FBB6663D23305E19CAA3FE52F6AEB0B94148469AFAD806F7
:201D40002439B243CE68F531AB0068C61E94D3352CCCC01D73E86A2356A825E09E20B8EB21
:201D6000C91274AB09D068E395B5AA1052FB2471C7292C43A5FF236F32059B6AFBFFAA10DA
:201D8000502823D5B1DC45B64043F84BD953AFC946C9D9E94F9A04DAAB600FECC7FE4759DE
:201DA00030F85756C8209628EC0257B89A0863C15C442F3CAA0C00653F700CD562A93BFCED
:201DC000721E4E13191A93220BA5612E93C92C2B555992DC02C150D4BCFB4DD1DFC6412B4F
:201DE000F168319ADF00B6FA0817D7972A06030AAC375AB0D508EA571062C23098E7EF1772
:201E00004B0F5568439712E3E62B2F21A104E734CADB2264CAE72EA3AAFEA4C305A59010B5
:201E2000972D172BE76B36E1F46D4152A41FAFC83AECA52CD8C3F95307AC3D5B3A520D1A29
:201E400044FC2915C6D562ACA499B515443254D1258B02135DBFC24F5C271FE4F0599069FF
:201E6000BDE4DBD9F3BDB56A281058510A4021314D4892D364650724FDD4ADA731A8E6757A
:201E80000A30BF4659F5FA004816A6E866B898CEC9B15B6D0BD83A70C15445D49F61020943
:201EA00047004470B0640FC6C201BF963002FF0DF1E1B61C941F30EC9E9B2AC94E502E631A
:201EC000D6E5E2975C0C908D3168D1AD57D46CF91F675837CED28CF2C12042043C9137E85C
:201EE0004B9C3D5C9694C4F1DFFAC7FE300ACD3A37CCBEDFA7D88C0B23DF350F555EAB5FEB
:201F0000A7C43115FF2ECDA6A7BA1D59E23144FEE36F4413CBF16BF09B3F4E6C54DA0F13A0
:201F20006FE5257598B51B11A5F2BA2DED5120C83BC1241D9BF6F02741BC6A9A66D741B67C
:201F4000DED62A974F19477650773663D4E3C9B819713D1A2802682C09D4061E95F1CD0458
:201F60009ED5976DFBD90DE2984CDA9CC7134D45664C0F16AC60DB6B4B63645B67FF6060A5
:201F800026C3F76AEC17EBD09C03D2C5AA4FFEB5DCE8F51D6565D9F021D0F60860D9EDAB2E
:201FA0009F2D44AE681A41664CAC7615673A6C376894EC27F4FF35B0B13AB135F030B45D8A
:201FC000B5A965AF9939C441D41E6D74C8D3AB0D2628F5F3A0F0C6F90FB9E82098275B5FC4
:201FE00078A42CF3FA9D02539BA3BF33E63DAD99D6253BA4D5B06A6C252DD4241333B46444
:20200000AA49092B169D734D42B0423662E9063FADD5F6F49D08CD13CB16DC31B0E007E1D5
:2020200038B9943B3905F9B0F059DA1F50A2E8C93FF14707430A655AAB5722D244350069B2
:2020400043BA509908659B3392554A54C906C45F1459F41CC1A9006D9261F048400CEE62CD
:2020600014471ADD4365BC8BCEFD521F226830574B68FD11EE9B5A028BC818A80A6A4FF85E
:20208000B8F5CC4DB3F6A7E0019CA6360626561A295D8D604D48F3EF9BA8AEA768BEA54E9A
:2020A0009CCAE148A8B567030F61A8A0BF404FF85B68F66634412159E3FDE031FB3BA8935C
:2020C000A4A2DCD3C9D4F8E81447B8BCF005A8AD451C1792E3CCB70438E8962D34F8B11C25
:2020E0009ED81C43B7C3445072B2DA20D515DB3D6C6BC82E13C6570998403D93E2603E426D
:202100002C4C95DC3DA6E4E4BED1FFE7DA0462B8BD6DB317FD2C1AA8C6A0F4A140760EE33D
:20212000DE29566E5A581239EC39E1C6050B304FE0D87773104145BF56E29FFBC11AE320D5
:20214000D9FE26C45B0070A6E0199B35FA31E86D3F2C599BE4C65EA0762DF952A4B32CF894
:20216000697A12B7B29A119EEB22FFCBE05A09A3DC0169AA9DF11C26F22FEEB3ED68CCB0A8
:2021800057BB071CDFF36810ADA9C5C72DCBB5C9D4FD9D1F5CDAFEF068F947EC542B1ECDB9
:2021A000EF504F1B4E6C079FF6309963F4D86EA395AD2BCABCFDE699081968286AFE2EA1C0
:2021C000B8AE6AEB2E09BD2EA99CD88D636FC2A51A6DC3CED417E56E1F9BE3522B0FB1E32C
:2021E000184358F2A60AC645B753AF29304B1BE9DB21CBBD5A2DD25314189D04BA29E7C98E
:202200004A6D379EF2A502BB532B0F5746D1CA2D2B9C39485E272C6CDCF30B21EC4CB94259
:20222000420292176A2FA06A468B0427944266EB9B61DFC28C2C14099692B9F3C5530F6618
:2022400060DDDD67AA356265924C624C0C0896B3C35C362CED07C225B48F0B0BF703C7599F
:20226000FB57B81D116CA5AFE98F63A6099B531F2AFB9C44A4D92B2FB50DCAF32910AE4C41
:202280004FA35428E9C1AAADAC11C1B90656D80FC442F16949ADF34D456B6E0707E4A4EC1F
:2022A0007431CDFF28CD1E3ABA6D3AD7FD272733B7166EF8D40A9F117968E3C6666F29A9B8
:2022C0000BE29BE52EE5EE5FA770B736DA6EAD3773CFB6AAB0089D9F376AFE52EAB7799EC2
:2022E000D498C9CCABF1E6A9DFFF7A0ECD58E6D56DB5ADBCF30BD960659B4EC84311A04A56
:2023000074FCFC4F4806B43339CC680526FEDAEAAC6B4CD3333E999A94D8D3ADE4E6240BB4
:20232000D99FC01DDB2794DD19056822DCD4239DB34B055A4E901096BE0019B5DBD8DEF2CD
:20234000EB48DD545EC6216749D5AD64EE98ED4F2C11994105ECF54630508EF74CD40D20E7
:20236000DB4CE93EA3ABA8E2FF501740CF2260442029003BA71B4BDFBE6FED03694D573F23
:202380007502F269621A0C4D66AD0822BD75133B050065DFFED64021E2A9483EAE6A455697
:2023A000BA4211F6C2ACA395015DDF0118385F07EB62A4FC4DBFB443DFE4C30BBC22F157D9
:2023C0006E1E0312DB025933B2D875F3D5BC086B2D6B3370F7BBE528700C53A39494346EC7
:2023E0004B25444D043AE7AA1F1FCCF3A5D527F8E53044C24E427419B859BBECE25B1CE648
:20240000E6AB310F511D0774A315F8BF41E2490BD342AF315D711A3FC059A250EE6B3A2A38
:202420001BD643351BEA3723EFA75EB3979FC30865F9F3EC0596B160EF018E472AC042470B
:202440006D0FFC3596AFA3C0B45E01D8965C1126AAEC0F6C8D2A478DB5002BD9393CC84D34
:20246000BBF4C5535C99EE2C201C0326B05235D1BC5338F099FC0F274CFDC0E64647C36771
:20248000C59DF5B0D3B710DEDF0655D8A027D7E21FBCA60434683C4D45A856C5BF2B334715
:2024A0002D99AA4D9E5FA66449D83B4F9CCB2D92F64CA5A23F04FD27A0294E73E93674B7C3
:2024C0001BDB47DCFAE63BE3BC034D21D2DDF692A2F1A5B66BC4D3C165BFDEF4054CBA923D
:2024E000A93659E371A0B8973EE5016AF9DFBDCFA50A0147A42E16D11E25A8201AB25DE2A9
:20250000259E3814FD5069A6FFBAF71472F11E443368E7082990F8D557912D22015B24C23E
:2025200034B29ACC3D1A3B074BE508974610EC97B5A4F8CB9F55D9DEF064D50176C2BEF631
:2025400043F8FEC371D8B0952B1842BDFCD5A01E0571343BE425D6016E33C8E764CD389B07
:20256000FF0CBC6299BB07D900BE33E4F2A1F018CF043956F7EEFD25C0121BE3DDF0D32B8A
:20258000A52D6ED19AE3F845A83C1C00311ADFB8EA44D15499BBA6D51A4CB7EDB1051E2D61
:2025A0008AE60BC018CE6168DF39B80431ED691EA0501A3D16A114D72F02DF5241D9395DBD
:2025C000BAEB33C01100F547CFC352B3B847D55A085C34AD9F5BD3D10D0C9222153ACBB4D3
:2025E000171592BCB7130AFA3F42CB4562261DBFD51E9F67BCBFB72931220A4BDD45102C44
:20260000CB9DACC20B72AB2F2D5132662EB25CD803528D9244C707566316C84E4BC5A34005
:202620001B5B72DA405AD914D1F1973D1A18FB0E49CF9C32180705A0283C1012C42F5A9F64
:20264000B3391D94D4BDDCDE700320C311E24227D75ECB973010FE5CB5C31113082794B29E
:20266000D7D30ED03192CA225866929ECEC4BEE5E5F7E069FECF9CAEB097BBC62776DDB2D0
:202680004707AA1F9AD2DF18601E98B8F2F051C7DA1CADE3C35DDBC39DAA20DAFDE7F31B81
:2026A000473348B1C6F0CF325AD76DFBCDB204FFE3279F660FD2D72019A4C7D7A42DABB85F
:2026C000DE971F17BCB15C42A3B41A2BCF9BDF992AC83003FA0173CCF10E08D54E496E4E38
:2026E000C4E2F82AB0E1FCE235A63DA19C3442681AC86FF25DE0A6DDF9DA1B42310F0A09EA
:20270000BD54C996CE56ED6F3858D2635BA155EA64CD2202390547416CBB3C48B939F6A279
:20272000C1FC231CD22F3DAC0B9A1CCF57945AB6AFA3EF91EDBEC8F2472ECE13A05C6591A9
:20274000A42632636CEC349220C9A4938F17A1B1AACF02DFB4BDC2E310E69B971E0001D657
:202760000A2F27E5B1672ADD24543907E05C61C8E1BCF0B6CE374419D9DFB112C1EC0523E3
:20278000B42F3C701EDBFC371F34C1FB98C84370623E531E0856CEFFE4090CF7011B1DA156
:2027A00050432B3A16B4AF58281520CFE74A6B974CCCD61E99E4ADF9C5696C304D4D61F805
:2027C0005CCC0ECCE526ACA5D1B534338A31BEAF60ACF42121B1FC6E6D273F3845945E489F
:2027E00058143D4BEECF112C2700D000342237976A2057BDC7A95BF3C3EA2C4949D43D38C0
:20280000C24CCB8FA998F8B8E21435BC923818156909AC379D5513DF93D96DE020A9A6D34D
:2028200004FDD76D0D080631750C75B0E73E58E9A4251714016712D492B7F4C87237B7153F
:202840009E5E076D6307F19F0DF0F3E453D83E3B084713CB766F0A2E0436405BC0AB6FCDD0
:2028600006F250F133ACA1E6C791EE299EFDFDA7FFF502404F94E4679693009309FEBECC5A
:2028800041F349FB2AFA9A6DBF2EA5D00F997478A6E7A46DB641A9AEDF2309200AA524BFF6
:2028A000EB79697B9DC8DD60F79FD10B4A465E4A1EA43842CD3063AACF696295D4D61776D8
:2028C0004057B1CE6F5A5AFA1277AAEB46403CE4AF6840C93E05BBDF0341B7C00544621787
:2028E00050F3B401019BE73D24CE0ACAD6FBA15FCDCF0C9DCC02008E3807533FE5DEF7CA93
:20290000529ECCE6C56A633054EBAA3F22415E9E5D468BE33160DE01052C66BEC46853E295
:20292000EF19A734CB4B2D5AD8A895B0C92BB6AF4125919930A03BBB8E58E901466E3BB62E
:202940009DF3C70BE49D156EBF5A03DDAF6C178D55B1AD2FB0D01F18F9DC9941E6C768F507
:202960006B2660A85114A525DB68B043AC3BB74708A74D38F813535BE06FC22D650918A41F
:20298000110C0CB732F4981B4B32C261E1FC633547A3380E0ABB5CE953E56C2EBB22EF1978
:2029A000E665E9D916A5A5B6FB47F321AECD3A2753C5AAF41C4F0CBBE9D9E93AA463D0928C
:2029C0002D4937D7116A4D93163BDB75A450011193196F29640C4338D857F2396521AFCCE7
:2029E00012AA02A23EBE525D1D483CA1E53C3EDAD4BA643BFC4EE3CDB6C5BF255596E458A4
:202A00007907EF9574406BA9DA1ECAC84632B095683D7938EA3ACE7AFCB0AA57763D956983
:202A20004CE728050F4FC3B9385E9AC04663BA515CB4D5C538154CF4381A04D4975EA36956
:202A4000F21A0C0790CBEAEAA0B6B7D827C95848C12A512E1B1E6E32C450024429F033FAD0
:202A60006D61684E921C56BC172029040036C84229BB3A0AC1B498E4A668D66FAAC4C55C73
:202A800067E10FE26F03E1E8F01E9652073B6616A526CF39DA174BDADC9ABD50E098A4FA8C
:202AA000B0E5D004F047D10C0D5D46195F16A6ED4BB19269455B400F6232ED913C3B55B54F
:202AC000A31DA313F2F43FC62E11622812A59A1FDFF661B0F0A191FBB14CF88EA2A8B5DAFD
:202AE00058F4E4A9C71C5955A9EECC48FF2A348A52694ECE94FA093EB1662B3C356F5C02AE
:202B0000CD19B2CBA23EE51ECC3F2E236F4E4E8E183C569CFADD1D9C063845149D8D054698
:202B20000F4F106142BFADB926FE3746A46BC3EE7526A908ED1EE92A5A23FDFCCA0B4A5EA1
:202B4000034BB1D738E152F63BD445350697510A03A5C2F5F896F6FF4CF6EAA0CB486F622B
:202B6000B5F442A0FCE10D5569E7A73EC8ABB79034FB629164549369996897394548535ABB
:202B8000CF3CE42EE01FD0B7A3696292EB41C771555660E717AE61C7E3F76627B41A37DE05
:202BA000EBF528BB2DED4FD90903DD550EFFB92C71ED98236D6AE79EEF62B2D325E24CF84A
:202BC000CC4770233D246DC6AAB454210D5B08E1DECE9275A150D43E6C21413915A312FD13
:202BE0005659FD042160B640665FC5E3E809434ADD15000E939FBDD06BBE37B27498ECDB1F
:202C0000FF38CEE17770AAEECCEBD006261537FB57D2DD1168F7CEB821714F44754E9CBF16
:202C2000A9CBE41AF0FFB807C517663F18B5E0503334C16EECF03520C011C72057FD446A75
:202C4000D270CC167665ADA575CAF93AECB946E8572F9222F3C3652B4321CD15DEC6F95328
:202C600014B7ABBD1B2D0048D8F9A52E5ED406B44537916AB8D03A072AFC6F9D3207AFA106
:202C8000E61DF80633D0DA2025159067B45D8C3AD449C7CC8B241465C1F597FBC865F9F5F3
:202CA0009132B139E81054CD9940A260CEF21F6FDCA3325F396E1C69F122A99D0B4C56DD06
:202CC000A025D2B024A7C8679BC49ADDD72F06281ABFFDCF95C7F5C768A3C25E9CC00FA0B6
:202CE000135FB4F914BC201029EA2F576C9FD0926AE1BF3EE7916EA32A689040E557C99BDC
:202D0000296CB2F00319FCA9A2D6B53B166501C072F830D6A427061A063DCB6909A33291D6
:202D2000DBFA6AA9AEDBED056527676C0EC96039B9940F09CB2645D75D950D71C576D2383A
:202D40009342D256EEC72D76EFB774057828BAB8AF0B185F224372953B494CE43E220C0B25
:202D6000CBEE0C9861CF073B6F9857DE292E40B2A1B2521134F9ACF811EAD9CAFEB3A74A38
:202D8000339716AAC4C2427421FA516470E04469FE47B37912B0002CF8F6BDAB68F85AFA37
:202DA00093A5C30A4992AEB0B3193430286F3C9A449310BE58ABFCE867EF9D3E2A012B61C4
:202DC0006BBEE8B0C2AF30D5195B0DD0B4C81722D76A64F3A6D56F4A1CFFA10404281B6380
:202DE000503590F003E9C6EBE4B729BA5D36C6E0635419124A05C03744FD6151239437EF82
:202E0000FD626AF8AF97EB60DA5B0DD0A4D601FEC1F9FDF7482196190056EBDB6B18C55457
:202E200005CC27F73337155D62601F6C3F2DCE204813042754001570CA5F16B552371FF332
:202E400046A1BA08E46B0D3EE0A1053C034A981FB9E6FC8E6628F4154898691ED5584D6E5A
:202E60009007A3C5BD500B45DA9D56700CAD5627370622E3B6F32538C622F6B546BC8F1403
:202E80009CA1DA3E37DBC3DB04FC9C3CEA2DC45510EECD710D7390443ED63618E1749A95AF
:202EA000F1A79FAA4F76679D5C326FA638C5E798526436060B1219C903E3B516E86D9FC0F3
:202EC000F8D8AE68E69B0F5EC504C03FACB0EB090B14C0EF039CE31318E8E4B2374DFA1D72
:202EE000DBB1ABB61503D56D590FAB5B630D549BA4D7ACA3FCA82FBC16A777FDCF9AFBAD23
:202F0000FFBA023FC1D26D5BA5FA08D669FD56A9F3E8E6B8511F4BC6184E21B1386C3FB9AC
:202F20002912AC24D339F1AC62FEDB1FF5B607EF5B1A3155E629BF1B400C9727B6E6935174
:202F4000CCAC3116C0EDA6B3BE48E071C33741394B3C3EA4A772389594AD19346821D03972
:202F6000EBA8A3ECEE686575ED15BA9BDBF04221B9B0FE9E054CF3CF640733134FE79CE0FF
:202F8000C69BF9CFA1B52DECC39DFEA6DF4A9611D99118F9A170EFF715ECCB3B48F21FCA29
:202FA000680F443ED006F75037EC6A0C3EC50107444820243CAC0E15C9D531E596086A9F21
:202FC0004B0DBA756F36DA9CD8D0643669E677BFBEF1D045AFF999FFCFCEEFB8112EDD34F0
:202FE000071A41970E141C6EF1F0990A6BFFA11916A5C03F5DCBB0AA33D724DB24383BFFA9
:20300000325BE431A5AD64F709DA5494A5F118ED361EF6D467989FFF47BE28C5DE0B6838C5
:203020009100159D62711C2F39282AE4D190A3E2169E270853665115554B45511C278E468B
:2030400016B59416EEAD2E61AACE19EF17F5C4972AF2EC4DB33262CCCD65AFC3FE39DB5973
:2030600027E63DA3E60F20F55C4DB36E3A62234D3D0A22C25E166F250205AB9C67C6ADE345
:20308000DA5BE64795003EEFBC6FC69C50DAA62164B7BF3255C3E1542320F453AACB44D71B
:2030A00092A2A96B9747D46A3F4DF46FA772AFA10999EB1A62621446DAF1723AF21A4F2499
:2030C000055330AEED06D0F7FDBBA3C8CA53D2524A9E6A99AE9C67AC0F28F95F46DD58B199
:2030E00008C5E40CD141CED2B7D9A50214B1E7B619E851E9A970710B3EFEE6A5C60B3BC85D
:203100004567E1FD65E2DCE6B544ECD7F5E5DD57BED834490D4B99E3EEF31B1ACC1096CD16
:20312000CAC2CAD36A380B312FF210CA076DF075D1481B494EEABA79F656B31213DBFAE9EA
:20314000FBD3A799673BCFE93D6DF0E754E76859A61EFFF148B32FDA4437D7EC3CCE15ACC9
:20316000295E27D353DBFA9D71551035E8F31C053938F9A4590C66FECF356D3BE80CA2AF3A
:203180002FA5F94401AF97F9B115A6C3A2A591FD14EDDF533300F869A6F86D03ED94968F5F
:2031A0000A233F6D2265933A5818F59C4B21FDC8C5A5908E8C5FB7CA50AA6DD84E8DE3DDE2
:2031C0009E02D1B4C9AEECE8D23C2BAE3E3E3FBC8F566240566645E04BD63A47DC462C3891
:2031E000BFDABDCA96DDD3B5F10509EB3C695CEE42CB6193A140A296A613B3B520570C3DE0
:2032000046905F42672D01FB3BFAFD224D349BBCF22A5FD238EF3951D9595BAB8E42C2F7BC
:20322000960CA69E65301CCD64E1B8BA4E0F62209733181CBC5CE438CB96522C45EBD16F13
:20324000031F6BC600FC50D6AC68053BC5415ED29768EFCD2BE52F56F3D06D12992CA1A5D2
:2032600056C4D7F5B866B6B33557BF9B36035F4BCE1CD4C8C7C1309F5EA90561FD0D6E70E6
:20328000651C2FC5EF480E61D3EE5998C527D8A7FAAFD02A2F2AFA32F20ED7B8C2E3431F38
:2032A000A4FA6DC5A42D71A205B4F036FF316B550FF895B73404FE4D9823A7E43643009F57
:2032C0009FD861BB5234306EA44A0115ED230E056BC2FD69600370AA96DF900253B6FF36BB
:2032E000323791F2CBE2A3F865C5E030B7226670D771E91833112E10F6D6B549A3F435133D
:2033000008F2599645ABCA2E099B5AC5F7B957BC0F3D1D93C55DA3FA47EA44D4FCCB36C491
:2033200047198C551FAA403C4BF76947350515F8342447F26E20F1C5A46E2297A917AF704F
:20334000A83BD5375BAD5B23366C38B2508E2CEEEDC74BFC2D909BED1671D6C025F490F47A
:20336000C11FC157315F1AE756A6BE0F404A0AB66D709E2B35359430D4E49AEFB9C7C7B0A5
:20338000989BED5008CA6F3B1CD24C0C911F2C4919DB28096770CD20C04248534F04D742E4
:2033A0006445D02A69DA276824343F963D6B0C9707F92D6BE8AE4F6A9B8DCA8CDC0A2CD5D4
:2033C0004853DA43C45AD3039BF3C1F3A3E3CCE4D21932BDB470CAE866AE52994EF11CF0CF
:2033E0000F1C73E40A531EFDAB054DB442A4F62C251E98C91C1E6F36BAF9C2F8F3C219E973
:20340000DEA6B03FD6113395C691B697F856F56A2EB7D54CE08F516F71B948B5C1D3326BAC
:203420006E4C59F73E35475543FCF6DF930AE3BAD4A4D08D4ED2BC02E4514C663CE3069DC9
:203440005BC9E0230AB119619D8EC2F71C5D310A445B8DE06FA74412AC00CD6B93E747AEAD
:20346000BF3FDC3E71B51BD0963C1DA2B7E0E81AB8FFA5E7B96111E6DCDC363DBEA4E471C3
:203480002C4A330D63F94F4D1046B09AC50B21E4E7E6D21F2B60FA14BB21F5EAFAEFF9080D
:2034A0002302BFDA0C3252B44DD01F2BF2DBD01D9F991D58B515AF3864A168211425AFE431
:2034C0003708FA00A8B390F6B94EC2C8521BAACD9ADB9D171DD04FCC3F40FB0014CCECE7FF
:2034E000B0CAB6222BA21D5EDCCFC8D043133D32A9ABA61A346F153998B0C304E449A92F11
:2035000026B3B26460616C4B9A04C9B6D75ED0636114F60898D69DA68F5295FBAC2B6C588F
:203520002DC549415BC712C5DCB0AF9DF51428A5FEFB08F24A3C13E06E5EAA170B96A79493
:2035400050C2D7D70D64BCC1EED46DAE0007D4C7CEEFFAC359B55D6BCC4EB4DB08534A217F
:203560001EC008262238FABA36B2EE99F80F67BC9F9309E4DEE5DE63033A41129424D80F46
:20358000C159CCDF91BF06BEA5F7381BDB0F5A204E214312AA645C0C5A1A3DC325B4BFC9F0
:2035A0001BB951F81241DDDA1B06340F0B4B0D2D103435FFCCCCA33618A8CDEFBD52202735
:2035C000BEC548EFF53E3A6501AF0DEDB8EC0D33EB9F8EDF03232DDEFE995E27265E4F2E8C
:2035E0008E65620E2719CBE3E704C3D991FB10442DF1C5FC130D9D912110CC3E3BF26872A4
:20360000436AEA2F11D9A83A537090A8E5DA6598FD1AEC00FA8BCFEDE0393ED7FB07CE1E01
:20362000B40EA4374AD6CDD8FA49CD8B1427ACAD5C55990D4CD5F82C37149B63F66458EC76
:20364000A68A9396A7CFF4DA2CD2E2F2678C9B4227F0259E5509C3434701B868A311F14B95
:2036600039B4B25F17DF2A3B005BEC8E43AFF910EEFD441540E70C55B43CBBB4CC0AB3204D
:20368000488CE2FF35633632D4F12563D5C8DB9A7226A7D7F4B0C401D394313F3E5F8F1A7A
:2036A000A411501F96354A0334D91518A460639A693A64D7CA63CC3E3D1219E7CB4965575F
:2036C000A7F36058F8A66430C3F6C25F1D3D313940CCE441EF0B4807A48FE1F1A64A2C9A93
:2036E000026A98DFC851B9EE718F93A4D357CC91B85FE19D5BBEE912C49E4D45B599454CED
:203700009D37051392622FD29D34983AD4F89219E7333A1B38A4083ABF9EF41FC7183E9400
:2037200021B7632FB4B7199F2CE9F3AEE1D4ED49CCA86A9BF1EBE100ADCD4575AC9FED5C5D
:2037400035DC04F02504C1FFB220C5B05EF6C39108991BEA6647A6CEFA2D986EBF725557BB
:203760001A6024916C5F1170A443285A93165DD1CAC65858C6F3F0B6434A40BB9C6ED8AFD6
:20378000A65E5FECC5BD319BE6542A9BE41DFC95051E49579AEDA1F4F9049D40322E396A3F
:2037A00023A2CC570828743E060668FCC6AD5DB73B555FA6D36E495168A2C2FEE94EEF7A6E
:2037C000DFA1364720CA9A335B661577A999B8AD1036C444222DBD4EF4AD6FB5F4D99D2E3C
:2037E0002325D543ED6F555775723BE60A990624DE25B674EEE9A6B49540BE0DC3070516A9
:20380000101B3558655D2530311FD4BC433C62163E04099E466AB8D1A75B113A19FC9F33AC
:2038200094A2CA285490AD3BB809FDF5ACEEC7D4F402C3010A543AD20A642F4A21FAB9FFCE
:20384000E6AE6BAF3998FF2B5E0A621DC8A5904DC9225B0D67CE3A9C561A14956919D8724B
:203860001BAAF0F70C9EAFBA66B80535B0BAD8324D1BC5495E46EB16284CD7302E44C7DD11
:20388000C2154922D3F6AFC6E1A2A5A31EBD485F70940C670C2ADFDFF4401FF75BE1C7F1B2
:2038A000A54C5A25201ECBCB3C311CE291E2563254C1E5AF1570583C701AA9928C160367CB
:2038C000134135970BB513EF2E4AF8E7B2B6AAAC4755010CFF1C071458EA54D69B4731F1A2
:2038E000B8B3EA22E34C17975A205D3AC9C896B90238F2B4109F4444226F26A66EF29B1400
:203900009F20259C0BD6B8AEEC3C375E135F2A0DD6F6E2F9A17436BB9CE272FD566E161BEB
:203920009F52B37856CECEEE4652BC992A250DCA2455C8C2C374ED767AAE5F97BDC765676D
:20394000A4347AFA706DB29F5AF0AC17AE5240DC2A21C93C319F96F156C2D698CD3522CCA7
:203960009CFA696CC6F830B04810C5EFA393D75AEF5195B163B69DB1BFB4FB62C46F630672
:20398000113A5B43585BF4ABC2A144C27196E8B0C72920E52C399852F60BEF5DCEC513BFEE
:2039A000414ADC4AD93F270F3E1540605E2FD7ABC744615DE3082AE750AFADE65D689074E6
:2039C0005CEF4542FBB7C1B07028C34E4959BA9E71732994493B27D1A01FD2E4E10A34ADF1
:2039E0003047CFE5CF1C4D0352F819BCB45D5D9E5062D69423F96ABC521D135F1B41A34AAE
:203A0000FF653A69B32EA9F56FE9C7D1370053E8FD6A366E1DE1952839F507E6392F50B66F
:203A20000AA63D5109CEAEFB2936024A3EDC573D16A8134F05126B6025BF67C40D336D7041
:203A40003A1ABDDDBCDC26E85D734CEFD7EAD7F2164342D2EA54C91EC968D9FEC3FCB20A28
:203A6000605520D53305659CBB96EC3121EFD0F0E9A62E6460E4A340D63CB9A7293010AE54
:203A800039F3DED4D9DBE53F7857A06664A6C3C2D51E65CFEFE2524FEF98F1A8E81D17AA8D
:203AA0000B08CB5728BE24F0349FD7A9D0CB04D598CBCA629E236CB59E2B70713912393D34
:203AC000699CC9DB5AFB5B314E4036F5FEBC99A75CCCA0F5172D1122B9351147B2F6EFF6A2
:203AE0004E459C0F0547F3D750BEDBF0F84ED8282A1616C69AB598652FF4EA8E8E05951E0A
:203B0000B062D7588FD9712CD43C920F0625C54D8D56DCEF70DAC15E199098926D8EA4AF39
:203B20002A974D15542C41DA9D4D0700D9D4FBEA1B6126597141BF4B989ECBBFD3ABCD4939
:203B400026F0C41C58B8CB04DBF7EF18999953F35039696F37B3DA5DF04DE004BD0BEF9154
:203B6000964B2F65B6735D96B6ADFBDA70D292A4CC70A0CD522E55DEDF26CF0DF70AD2AE46
:203B800054A8A09D1F4CD7D96F2C07A5AE673E0E4D3011A5F6A25824B8E662C09F22BCADF8
:203BA000B6F206202B77D8B2983CF0244EF2D15553B9516167E27AABF69A5FF9A47B6C0D11
:203BC00020B901B5C6FD6873AD522E21080E7B034CBABFD0E42A02D04CD7247801DE277527
:203BE0007295CE96E1226252DFB54B0B9692B6D2120E1E25A09DC7065FB7AD48CDE5EFCB25
:203C000027B80BCFC73FDFDC097131F8E09F1DACA23F1944540107A35F1BE90026A7E0E210
:203C20004111283A16425B2847A12197024EB4B7DE075EF83DAE9957D85F4FC231414B3946
:203C400048BEFDFD980333C92CB5BA1E6CC52F9021493B330949ED6367091D9F046A954437
:203C60005D94D4A9E30FF20AC5B405E25E6A478B4D981FF72F565C1A9B04300A61D3AF40FC
:203C8000E80EF21D6F2537C8C33CB0C644B0F626A08D6C34A61A15030CE13D515B56A7612E
:203CA000565B92305CBBEE3CFAD249E640135FCB09D3694434EC0CEDC0A54FC9B93A6AB2AA
:203CC000C14B9FE8D4716AB70D5AC0AC14E31557AB113FB40EF9A103BAD1341807F5A59C47
:203CE0004518C0D5ED18C90E473F456817CA2D6F42562316BD3E0A52E8EDD60C65E730E00B
:203D0000A8404567289F69EE0AF5F030F6E2CAE24EA9A71D67402717AF22EA9EA4779C2D71
:203D2000E62F10B52B42230E71955A2BA55599F6FA32FED494B0C35CB443191B9FD732F1D2
:203D4000BF64C1BB3F4441DEF3E7AC560CDB26BD2B24995E3B9E62B1DC15FA7445E5A720FA
:203D60009EBE6EE093A6C1A454BA2094DF3EC814EC9959B249D2B9C7D4D8D64413255F4672
:203D8000A9C3E55EC3100ACBEEA24DD3D6670A3D98E76DF14FA8DDD0F33B7003E7C06C4C17
:203DA000F302F668C046CDF3B3FBF2B06B5907930816909A28246A511429C5CCC522D50261
:203DC000A9280C713C2754425E5E22F598161D9B102CA2230D8D076FA75B235E52EE21ABC3
:203DE00097BAF363A32747CC654C453D64E31620FAE6DED59293A2CD0BF42692CFF21CBB19
:203E000059D826516DD325A4389E3D080FBAF0B81FB96747B36CF06EDDC1FD26BE6D9EAE2A
:203E20008E6D69EF71E7A6313620489F22D62807EABCB4E917C196F331F22B24D6D1655723
:203E4000A02FDD9C6E4144BCC827F634A80F91DBE96896904EC29B9D7054D9974EC6607157
:203E600096B433C4F05FAD4008A54594EA0D07E3E3D3FF4CB4D93F38FF5B4753BBC79C59EE
:203E800095A33C6F1716D9419C4300C52AAB5D1A09422E03F29172A29FC53A554D294AB191
:203EA0005BC1CC42076A9DC267363472D9A175BAC1CC4F5A073E99E3C10F14A6FF634D3CB0
:203EC000A3E6CC8857475A1297C9EEBEBEA9C9659AE13CB7DEF7F1AA1B31F1C553125A8C2F
:203EE000680EEFBB38525049B5DDAB298B640B0EC96443B33DBEADFB3DE0E9C7C2D3472082
:203F00008E540AC56A14A56C9653FE2D1206DD139735A8C7D1063AA91A4EF09B4C00AEADB6
:203F2000F30D2913305AFB75F7CF473C0513AD36E3B4D7D0A0B746A7F1F79EC201324FDEDD
:203F40002BDF20E108D06A505FAF2EE263CAAFB444132DF8490D6AA8EC4311DE72A138D1F8
:203F6000126BE9C033C394413DD1BBB9D2AAF8F668206392FB48ED6E35592D37DE2E3AF819
:203F80004E030970E32FBA35CAC5B41C17B8CA65013FE54E97AC41B59B6C6952173050A54F
:203FA000193E6119C516EDAA26A2303F0BD9077031C7C1E69BEA42364F9E3F49E92BC359EB
:203FC0003C1DA5BCEAB51AA896306D378F9E4597B2F1C24CC9F6D8335806F44B5BBAEE5BDD
:203FE0003234320DCF153413BB15998E4706203E44ABAE08285A3399C35D9C0DD0D0DBD543
:204000005AD9C6E2523B3D10E9DE14371064D1F81691F11396F4D212E5305A055DB81EF0EC
:2040200048A4FAAAF6651AE9F98F6818933A26E861E34B02E346BCC5E4C15D8AF2B12B8F8B
:20404000FBEB328B98E0A828B49B25FBFC6357DAE4FC22105AEF4A8F0BAA6EFF9750DAD887
:20406000D6E55B48B4CF72A0C5A2A41DA31DD45F293F50194E2DC1C4EBC0ABA168E52D22CE
:204080000955D6E4F6ABAAA29694CAB3301CC25A3B431D2C634B559ED1BDF2EC9F0DE6BBEB
:2040A000296F616338B9A5B271E8C9DFAFCF0F9CA2029133A6482C5ED7CDCC04FCA7F0F853
:2040C00097A52C36F82E1E0CE36B98F7F3B03E2AAFA1CD0A4C143FBD56A4213D4DFBFCC526
:2040E00041AC131B1D38CB36B304EB29DF54F16EF9A8CFBBEFD9C66C2590CE014CCD0A0323
:20410000A111696BDEAFA90B3695DF38E4BF97C2BFCD28CAD25537FBD5090C00A79B05AB47
:20412000DA33B1A4C5F5B62697FBF4114505D820F0461CCAB545D8256AF554C3CC913FF396
:2041400009C08A20568FCA4FEBAC440B9417F3EFBD65188E201028E55C42DF67DDA985E5A2
:20416000AAB80A0997FD0BCC11A0C6D4EF3CF1AA4B89030DC4E8ADD40893270A0F5FB9F258
:20418000952D2203DBFA23CA234B0788E0B547B619EE1BDA124926F4E452CDE6C0B207A66E
:2041A00018D200A169B9F8186B2C3122314B551809F30EDCD21005468AAD29CA20E8D94011
:2041C000BD5DA84A58BF361B684520F18FABFD3F8D2BF1A1C1A734EA9C03FA6468D82C6F8F
:2041E000FAE16F5B5C3EBD2EF8DD20F63646B29B57B91A8ECDDBFCBA685FA23FE6F48FC0FA
:20420000034A67111EA8CBDA3819E84920D74E94F3E1EEA1BC5B9A9301E6F46BFA3DE4DD2E
:2042200013D19DE4D1F5EBFF946AE6FDB656C10C1DD7D674E0390705149214404ED7EEEF50
:204240001A929B23BADD7254C9C5E5AAB74556B39A4334C30701F377CED2A8EFE519DF38E3
:204260003DB0EA2A6BE36AFED5FA9FCB2DB834B3606DBCD9F3284CFB9AD9B1B9B0DF31E43D
:20428000DFC22BC735A694DE9EFBE017D92B5EDD5AF606CACABAEB1C6312B15B2E0B8E4A32
:2042A0006EA1F1B6E229330FD11B2907D408FBDEDCD017DEC53D0C0F9C4940076346D23194
:2042C0001D4ECF21A2EC47F344A06E5A9F9AC522FCAD995BA3261C50A54524C8279A9116DF
:2042E000F1534910C2B38CA065D51DA0CB8B21FADE3C91FF48D39EF33D47A2D1329260287F
:2043000059529711A4BD285013A8BB175E9D37ED15CD45ED1FD46590061226DE6C3F4F1D96
:204320001CEC38154CCB4BA7DCC246ED483AF34FB3CE63F8C88F08F304F169DFF3AFBF8F2F
:204340000F1AE7A35B23CB1216BD39663BD0013DEBAA04AD3BA2444025265A03663800485F
:204360002AE6B6B85B682FD606FE1F37BC47A0CD69D82158D2FCB217F7D61DBB26509362CC
:2043800014CCE98EF2965D68FB03B92029EA3CC5C78F558D2AC0880094F89FD832C2624546
:2043A00027D05C1CB03B9B22630FB1561CE8B43B025A1444016B90B73456A52630C2D9CB28
:2043C00067D139D0F04AD4386CFAF298FEF742E3324C4CDF41C4063E359013F7AC13AF6BB2
:2043E0003393BA1CACE745E057E1AF1DCE716C4A9AFF0749F4039FBF90925C962BA6DAD2A1
:204400006AB973CAC35103EDDFA53BD44BC521516D19129031A6C8061CBC16FC232866E8D3
:20442000900A062465EE069E246443BCE365225F6B3A34D20816DE92946FF419C31D0A0539
:204440002113441CECF8ED2053AC6E5F4F61B2DF00385A98D0B3D3129AFCCE8DCBA8C35CB5
:204460008C8E952C6ABF171CB66125DFB1AF0BECE2EB23C3ECC7FD25A0165AA458116DA2DF
:20448000CD644E94D3A0E7CEB1F86533704DF4F7DEA6FDF74ECEAB3B068CCEF58FB33E2980
:2044A000B96A1F573DAD08AD4F11DC4D5B0556A597A3BB93C89DE330BBCEB8A8652FC1465C
:2044C000283C062BA1DB98D767AF1D3C412E9C9EA437C84C28CC50684363F79547ED60AB38
:2044E00044D62603CA56465132E45A68EBA6006728202D0636D689EE93908F1118F9434A93
:204500004FD0A5C3F05CF1CC2397536AECB7F5E95FC098CEADF9A2DD64A76FAA60E5493681
:20452000D605FACF2660D6E7B151D9B83D00A06A8ECC8EF843CF2CD1BCC6BD3104989F69B7
:20454000CDFB17CC33D315D8C024A31D1CD9DC2B2EEDB8A4BDDC50334524A4EB25BAB6AB52
:204560000DE517A14105EF0F35E43EFEFDC2B5F1D7A9BA029C07F0D936B044E3A8A5B76278
:2045800006AF005E4065F5311ECEEE445DAC02B25FB9A0AD4A038EDC20E2BC34390FB31643
:2045A0004B6D2817FA8DB2A5FE594771B3CD09025DF723AF68BDC2D0035DCBF068E932D33E
:2045C000B06CDE08EF06D503D7AF710DD25EEBEA2C27E9ED643091ACF560A69D3FC0ABE0E7
:2045E000491A61C9FCD6B317A6623CD6A8994A93E63EFA5770FDB9A0AA626A1A215695384B
:2046000065BDE60A6A2D5E9CEAF5F8B1FF1E3EB6E829331315B149E45392AA0AF749E19CBE
:204620009E36EF531D13010DD5F0F4459AEF191867E6CF9F4AF6D2DFC3ACC19CC72300B557
:20464000E1D288875908419DD5530BF1A150E43BD8A7649FC84905FC061997A4ECBC5354E8
:2046600029C8B508FF401232DB97BDB622C1C7486C6B19FE1CEA675290AB1DC8EDBABE32CE
:204680002A34CEE20DE45B2E67D34DF2CFFDC8ABB501E709E2D44DAAAE075D1AD35BFE3BF4
:2046A00014369145533A3A21F2A85A5549A60DAB1D6E595F4CE15D9DA6024F27086EC4FA46
:2046C000D1196031B23F1D5C07EF2E0B9DC9E65DA4C22134C92726F627C2A66EB1A0CFC772
:2046E000D0F7F23927FB5624163C4C46F93A8ED62A289A2DA8064DACC929CFF9BC1A4A64B3
:20470000426A43698E2996D0464C99145038F29FCFBB14D5B7AB6464E1AC67D4EE1AF2A1CC
:204720006B95BBB1B662BFACBFE1121D46B6ECC16404510E274D54D752E1ECB82A420F0D4D
:20474000DC0BA75E452B5DD525E9B59D5548A60A9C6358B0B6EFAE204743651A6F04316097
:20476000A9FB0908093C61FCFAAA1D14EACC200FF8A391501C3898F522123A9873A4206A24
:2047800019ADDAAAC101497561F6B65168210A605330A4A2E15479DD6155C8CBB9D4293873
:2047A0007B39E1EE9DCF9CBEDE1461E29B76DDDDD467A2D7DBBF154CD5F59ABFC9C769EEF7
:2047C0009930F945B8B1080DE2B96464184639B849539521A3F79B68581236C71EF9B50779
:2047E00040F6469B03D9B49560F558664071F7A25B6D360509D83BF032566C0915C8F7A39D
:204800002A11559C1A2A9A9DC5BD07CFEFDA31EBD3A0F91154BF526605DABA48F91C20FD59
:20482000A15242A2485E25F23ECDB1D96A951B6699AC48FA64635793E04264EBD45BE36AAA
:204840001893701ED107BB9B55DCCDDFF82F1F3156F4033990D2246D03B5D522EBC058F47E
:2048600042CB110C04FDAF654CB45B0D19A6FEEC35E52E6C302EDC02002EEA07D708F654B0
:20488000D1EFBEDF9CFEE64F15C8A9F609A86652A955B99CC1A79A335A30252D5592E9BC17
:2048A000E952A560CDE8FD962FB9B80A6762DECBB4FBA242DAFA5B6AFA0905DA69299720FD
:2048C000A8E52B0F657212129DD8D22BA991B49DC3C163F0E2D424905138C2B0D30B54DFCC
:2048E0001AD9E1D1ED30F09A093A389C3625F96DA7A7AA1CB8E970C49C0B180FB948FEE3FB
:204900005A3A12EE28B43D74761C56FC1AACA4E478C6472CBFF831CFD6ECE5125712E26375
:2049200003B975476094050F06CC660615CA3C9C60C0340FE06CDFC29F10CBC15D29C30529
:2049400063D1291B7340E656A766D9475ADCFC263D6FA50B5312BEBA71CC5000BFC92A9B58
:204960003640B2489906A9F00445A81911DB246CC9676E9A5AC45F4EBDB4086771540D0A4A
:204980001D24B12C39F6AE33A8C50246BDB6B1A8A7496A1DC6FB2F1EB1B9AA4D3ECDF81768
:2049A000BBCDF4ADD7F14E4EDE9596C08DD437355B6BFD1FBCFEA29F3D205738A151B6ED76
:2049C000FAC561F929AB5C671542A392C65259A5A265FF91D04925DD1D48A50D0D65698B56
:2049E00060161228BD005A4BF2AF1E506009FDDCD0AD4C182302FAFAD70059B01326C26817
:204A00005BCD1DE2D18FADDDEC4452AF5E10FEBC47BEEB40F7B81D0B29E4F25C1D9EF2B865
:204A20002F413ABB505B6B6C22613705DBC0332C273F70B1275364B005176846D6281801E0
:204A4000182A99F82A7305D4EA16EC34DCD464B5CA1258E758955CC76B38E44C5AA01C9779
:204A600047352A9CFF3A2491E937FDB1ADEC27015563AEB13A48A8E7E3229BECE41F93EE3F
:204A8000ED0F771F2B9346D1D71099C8C59763DED50540A9FFDB27EF28C2FB77FC2748FD53
:204AA000755FC141EC316BE114E4956649F098EF68111051EB43C3DB32C255FA16C8663C9B
:204AC0001120EB534CDADB921C6F9F5E4AD41F55BE64532A1F9F099A1B54BA1D1FC653B983
:204AE0006DDABA387658001A44D7A2CF2512B059DF1FD54BAD66023625ACDC9A9ED46F9C9C
:204B0000ABC0E4AC3A6D3A16D5BBADC30DAE5764614151650602E7FD0239D7C7F40BC9C385
:204B200067672DECCF3CD496C12BB36640EB26F1BE65E6F10AB2B4F6966F31613F27BFC6F0
:204B40004EEF5760C0BDE296C8254ED0656AA43041CEA993BF613B35EC6F2F2FACB2623A30
:204B600007D3999F19F9212713F51112FA5406334AD86039C06B66541607665A5E5ABDB76E
:204B800021461B4413C0624A388FAD5EC4F144EDAF00340212B9B6DD0FD89972C0AE6C58B1
:204BA000106D54CC16135641382C9FFA52A2F04D58566520D83B9D9EB640A1B836E3971AD0
:204BC000B5BD5CA3EA41726B9DC520AAD26165542DE250FD6029737438DC6EA5D2D5442A3C
:204BE000ABB154C61DB26CF32DB8FB2FE20C9F0608BAA9CD5FFD39C24716CFEBD63C93BA6A
:204C0000E2D3FCFBE0F6D44D486ECE589F5FB575FA4EF6BCA8750E94C534BFB036ED3A3F30
:204C2000B04B643E0524A5B50207D3E5C5FB56C8425C15996329C3C534509322B712AFEDB7
:204C40004C21009D17D8063A0CEEC95DF90302CF6400A611496005B3D79305580062FB2C62
:204C6000FAC22C37E44935D274703BE93CAFEFEF065958C1E6BE63B54E3267AD40BAFB143F
:204C8000DCDB6B99661CAB3841031798D1A3522419F2439AC7BC71E29A5A6CFD98ACED0CBF
:204CA00043F305EF05251491C5AC64A6FB2207C34567460FAD0ACD5C081B8EEE10ADE4B8C0
:204CC00041C1B1B70621B413B023EC53313FE3A417D4E8483A5AD3201B088D70FEA615A553
:204CE00023AF39DB06D33ED46A2D0B5866AE34C99EC6420EF2F0EAF9459C380F5D4D630525
:204D00008FB7D46B9F42DE2E62073B45DBCFBE19DE94FBEEA41154A54A68BD276411B8E407
:204D2000344E38D4FC12F313B40A22EBB66873541FF1AE273C284835C6D23B6436D3286093
:204D400060C80E30A40895B073BF00C1BE0B92022397500C3ADDDD641F6EE22B4FB0B04CA9
:204D6000E9539A3E9AE894C5266F9916F1E730A7EB0D6FA1B0B9AF9D685AEEAEDE21645B78
:204D80003B6FF4FBD9D50AAE0156F6BA5193A5124A171B015AC8574724CB6720B1CD59AD3B
:204DA0003BF2E6094AE93C0CAF5F26C0B4CF0BA6CEA5C92C7457F9BFB2C3CB3F03A85A4B7A
:204DC0001BE8350268111AD951C0061DA3BF1096271B1E3C33B85F48740A522702B203CE47
:204DE00023A549AADB5C04FAFB9D62E20EA61B5C6F3B081C9EBF733CF61151F2F91AFF2165
:204E0000E0D9FF4C120D08E3D3282193F65FBB4B9DBBFB2A4DF2B8E2A36792DFC73B503F18
:204E20001C68C455D81C92CE51CBF3A2E912CA12188F0AB54C2B125D1F23EB2FD1A2983D09
:204E400071D751531F66C06F0C111BA3E7BCB64AEEAC47703A53B79D3DD5068DA6BC8DF678
:204E6000AF22E8F698DA11C2AB68623F1A12221114FE41D8E0E7B3A11B314528583E2AC2AA
:204E8000931DFCF13F36ECFCAD09B43A3D6C606F36F1CCD61BCC8E2C06594143670870418F
:204EA00004B9953A5906B71BD5B4402CB7E50DF2F4D89EF66AA2AF48430938541CCF63EF2D
:204EC000E9C6A7B44643ADFB1ABD47E3EC5C91715841D7665D95D33DBD92CF62F508FB6A92
:204EE00064D5B43E69A4E7BB28D75F6F0B4BB21D1B96B200F702355A0C50AADDAF94126162
:204F00000DF4C631D522199649A72DDA4D58190F3397F81FCEAAE0542E2F38AAF82F4A28CA
:204F2000BE10CFDCE74347AAF621E8F43E2513DE07966DD827FED85DF955B7992376A3DEA2
:204F4000DA122C04BE715674D825D7EB08C6D6E55A564F9CE967034FC04923262FAD7638DB
:204F6000E3996AB26A4AECD9D92ACDE1B00F125B62381E3649F0DBA9DDDB424EAE340CF969
:204F800000C6583340100B98DC3DB4BB5F1763519FEE46D35358B0E9B9EA1D165EC3D42D39
:204FA0000049112FC1AAFEE88CBB12A30FD5C9D1FEEE5222705E6E08700C3C3AD743CF0B13
:204FC00031ACF900601FAED5D2E5B2ED52C22B3FD639CE61093B97F8EFB24C6E6232A66C13
:204FE000D76F59E43BC1299A15D8B6493823690E1DAD9108FEA1FECBDF954A474CC8CB33CF
:20500000D7536D0961080DB1326A13905DEAB8AE36D39DA99217CF022333AC1869D032D7B8
:2050200095E9021C255E5941DFDA1020B3B7EB12BF2236DD45C066A89439F11DE4D175302B
:20504000BF3E18B6BB2059290B0BBD6741D84BBE7494C0EF255859F8F0B79A3FAAE7599746
:20506000B72E0B49BFAF60989A13064396A8CB6FAAC92CE9BFED3DBCA6BB044C63C59BA0E2
:20508000524DC701F0305862AF2DB0415863AC746DD7A7EAA3660259A9CF08D8EDA528FAE2
:2050A000795175183961D6E8A547AA0FE3E83CF0D7AA254534983D569308095ACC54602EAF
:2050C000A00D38946DE99FEC5CA14793BB281E52F03DC24D4C1E9DB1F8373CB3BBAD9B3CFB
:2050E0009B9F160BD2BF11E337B01A55DF5F39C4F4F7FC58492A31652E9109EA18C03650E7
:205100006AC00623E74D08A070E162475FD93255580BFBB5BABA315A90AEB8FA2E08542BF0
:20512000BEA42A9735EAC94C56AFFF3F06E1100091E14D1BA936E19ABE9D12D810130F35FE
:2051400024B2F6E614440B32C647031EDB14F3F2B36D26C4ED5BBE702920CA1E26AE4F052D
:205160002203DBD95D2A3442399212D858DCD83B60061301EDFAD3596B3BA0935304553E0D
:205180001DBAAE002D0B34C2F06DAF9939D7686F3807F635D0B618C8D30644060DA8141BF9
:2051A000AC22CA7199341109145526982150A698070CDF4FED41448FF34ED14300DA6E90BA
:2051C0003D39E4F041636242149450BAABF193C512FACB39E7101D44285C35F6C2DA980448
:2051E00072226E4B9663C75C359AFFE6740C34E2EA3A563011E574F5C51625D824E85AFABB
:20520000FCEE53354AD434B817B0BE2A2EFECBAF21EDDEAF3F149AD674EA3EEF3DB3CB46D3
:205220006C11DF11B3B61A146554AF33EDF0D1D7D5CA1C9EBC91365139332401616A053884
:20524000A0013C526D06B1AD18FCD46DDCA0C75E3D3AEBF3514A66C1D99297E2C513CE6651
:20526000D8BD6FD6E65A60FEC039CBE50C71C0BEC9C872FB97F6E4BFD3FE9AF7074A522DB2
:20528000076F72BE6158FD6EB45CC12697DB66DE2F6AC2B154943FD916BCC2A04ABAC50688
:2052A000D6059A9B3A513846F0222861EB3FE396419870AC9640C303E6D671E7BA95E6F6C7
:2052C0002835DBA4A8BC367650B3C22A5DD21F9D5BA9DDE8F067F27198C90030C76FA4D941
:2052E000F916BD07A83EFB5EBAA85FDB386C9126CEB971229EB830B6369C0D5D6459AAEFBD
:20530000083BA2D35CBD3DCD29CB26156F6E53148F6D8FC8DD2A96E7A64B0CF9CB63F66AE4
:20532000FAA9AC399FCDFB0B68D240D7925AAB613CEEE117114F17ED425DD50238FF221FB6
:20534000FECFF14247BAE49B5B95A0122FECCFFFC157319A3EB73F5FCAA4245AF5063C3673
:20536000A78FCCC91C181ECE4D2D2552A13FB44C20EC639F3E28D8B5CD389FA65A1126F69F
:205380004E68B047D2E992EEF8A72B58C694180718D7B6C6243F3AE9180C08943EE6B9619B
:2053A000A5E03AA2BB4FF4893494D564A3466AB5ED0ACA4A0A3E3C08B74C55D356FE66136D
:2053C000CBC4A7F437BC24C5C6E41CFB343637C8BF4490F6BE30B9184CAC3B5DD79E054902
:2053E00003D7021EEBC2709FD2E00AF2ED3C2EA1706BD6AE9E9E46F85EB7A30694F26F3C89
:20540000D0D3B2AEAE312BDD509744ABE020C03CF605654B1597FCE3C13E5447BCFBAF5D3D
:20542000A7F516B194CEFD4A055B4E5E189404BC1CF72554B3DB6470C8D4905C1316E13F29
:20544000FE695B6D94CD429C5C31C0A7A8A3E72FA1A355C472BEAF4B975C066A24C6D731AD
:20546000F80501259B9DE5FD1273D91ECAC806E465EDE1B26D1968EE68C30EDC35F8D371B0
:20548000AC630F4513394897A656476A4858A0A043EEA7DC2AD74670D7A969CC621348C54F
:2054A0000964BC0661A926C93320D1324C41045814342C8D586D5ABBA1B2A0712E43010FC5
:2054C00016C00D69E6AC4147F2E7BFA0026915EB1B47D2D46B599A01F598181CE9134FEC64
:2054E0005359061A0B34C89FFBFB34C9E0609622C824A5F3A849ED24D2AB8845FDA2F9E007
:205500000C51332505A76109B160071C31399E611A46BF15DEA09909B9B913B56420050EFE
:205520002F6E31E9E3ECC1BE2C207423B9A7CDF1614BF000419BA140A1059A544BD2A09229
:20554000DBDC93BDFE1269F9235A6F2F6AA3286A51A7AFD3FFC915E96D2D29F734B84942A7
:205560000D401F58B601A3E319205AD0EA919454F7551E64F4401C22D2C56B0EFF3BB7E53E
:20558000C3A2C82E6D542D6595E70D66B7C7D1E33E6C964C4D4CA959E3FF030CF143D4FE1E
:2055A000D5DCE1F7EAB1401CDF164324D20573AF6D5E0160CA21D0FE2DDBDEDC001718DE62
:2055C00073D3BCC3C0AFF0B968C711F7F858F2B2F3A42F5EDADD28B7BEE4DB692E23C9F811
:2055E000335AAD941897E3D4F6EDD1B1FBA204013C16EC51D33EE4FBD15AB2F00DD36435AB
:2056000006DF6A04D7BDAEA51AB9408F4B98B4B43DFC6C951638B3C1D3ECE4F8E0A4F394C1
:20562000CCC748240AE1352F201DDB4B9041AD9496DA02A6FBEB1CA0B2FF3320FB555FAE8C
:2056400054BE59EAB3D3F5E4C5D13EC627CEFA2B49CE3DDAA798E4DEF6EB5252D8A46FD271
:2056600006441B73CBB84CDC60D73ED5AEEE692DED4EB9F02E35EC421E6C016D0061C54D4B
:20568000F139F1A408E42A3C27CB96602F9DF4A85016459316930C17624DF1D1C50060E623
:2056A000686CDFF3474F1189BBF72927C8209E286BCE9B55E80D4C0EA556D768BC4F3A303D
:2056C00023CF651DDF6644F23B214DAF17382FFFF8B4946AE0D7A54120FDB7F909F761137E
:2056E000DFE95AA6B02826130412558D178ACF3395D2233E03FC593931E7511C420ACECD71
:20570000D7C9521E0B9DD3B0610F56BBA40DB347D2A153BB54C8AE8E8FB0264F64FC94455C
:20572000CA36FFC11942B5A2195C3025EC18CD32E215DF336BAEB149A143475F886AEBDACD
:205740005FD941DB6CC01D5743B46BDD6735CD3CA2BE39AACD0149F2203908029F9E2AE873
:20576000E56ECBCEC2C10472B15728C6BD04F0944008A706171B34DA064CFDFBD7ADBE67E1
:20578000561EEE69C0B5D811B948F1F4A3935039400E29CF619B0E0F5DCB4FCB2715953B8E
:2057A000BDCD785EBAB8042C66DD11C3DDD0004F9F000B1F519860EFD06FC6AFC7594EB4FD
:2057C0005B73DB35E55A68A6C19FD5324BFAEDC530B2DF91C29395EFFAFD57B228993571AE
:2057E000AD07EEDF1DCFCB6604F3B85ED3B2C7425FEFF567B79ED0C2CA17918B0A41086E21
:20580000221864DC8EFF1F6841F09601D328A09BF8D9675D35ABC23C40959EBAFCE4CDB4FB
:20582000F0002108C638B842DD45CD36463F3AEEFD20ED0E4E055B019FE9FE8E17E22E3B48
:2058400006C9C26E2E5BABDFA41724AFA8161F0B245558FE414396385CE5BB9F59E7CC0DEB
:20586000A70EACBD9C9B3843582FF463F485D66264E00A122D242920F2D9C7A068CC2F95A5
:205880005B2166F9FFD294C8C13D874232A78896B0FECEB40A515FC0DAED0FAC1BD4DAA4A9
:2058A000D319BC0F8F6445CF35CC2C6A1C3C9B62449938A3E85DC7A2DECC59AF3E6FC73E74
:2058C0003333F25CD7CFB4F9DDFAD116B244ED3B5E07A2FE4D3D5D0FA86203DCD5F6B1B3D2
:2058E0005DE159DE0CB950A6B04EECD8B7259466DDEB351F5B9FE420654731FB1DDDF2C939
:20590000CC25D61C0D6762C493EF28FE0EFD5D023ECA004762F099B529535EC50096BCA870
:20592000BDCAD472B9CF453E5F43459309B43F0C182E6109A708C1A6C6BD49F6425C217155
:20594000B3999FFE43B0EA9ECE6114604628F31E1EC56AF313AA4A31FA60994B07CDFFDB5D
:20596000D302955931042EA2BD16E9B32D60F9B5909C6FC5A2FB97F1DC30C3A13216D5B2F1
:2059800095362D13471113ECC71B3353BA0D330F9D0C160EDCE319E02434E25EFCDA0F969C
:2059A000FC31C1EB62FD18D8DE349596A2FC4627203162D5B78E2853CF0DBEDD2C8A9AEA7E
:2059C000FD4CCE4FE80A5419B0C0EFC3AD40D9A9F030B957F3E818F38A9394E02FD5631D46
:2059E0002F2C3816F05960C7043D43E2AB3741DA5910046034E1F63C10A22E3137FDF0A33F
:205A000099F2B8050842941B241AE7FE39C0EA2AFAEE1A3A1EE7D004E8A956C4E5EEE3207F
:205A20004B96A996D560174BD2CCF5B3274DCED722C5C373A7A3D69CAED548F907BD576E2A
:205A4000C9A06452115B2F92BB4F48A1A964AF38BC9E3AD2292CDC39A330A1DB021E045080
:205A6000921BDADF3254BD37402EF3B7105C2A082B1F4205FC35FBEB609962E1AE45E6D201
:205A8000E5CCB202D05759BC1AF4438D462D3DFEE1E61CCAC9244D5FCF1C6E2547A6EBB38A
:205AA000098C3B214BC4A31C23D4A992F88F621FB3F247FF28370BE2F139BF3B420D706F64
:205AC00063575E13E1D019063ADBFC9DA62C20FF3127970AD5D4314AA870246043AF94AC41
:205AE00021322901F04D3261F49772036E52E69543C4606D66E2BBD9CD4E6AF2F46241D789
:205B000012556D0F6D07E844DA2CCAA1ABABB1C59B2EE74C59D0F0741946461071E16FCEF8
:205B20009565DB49A96718D41443B691E662C17329E53F9262F46A491AD6A6C1D051F49845
:205B40006C13AE9E25969D0D97C6BF0B199C0CEFB955EEEEB71620FA5CC4F579C034317149
:205B600032FAC8B0F101581B161AC6E7B530DECC41162AFE06F8BB282A78DC43B24BD5C9F4
:205B8000A239E41F130F30AC7124B237062750434D58DAADC3C9416D9DA313A3EE226BC450
:205BA000976DBAA4DBEBD0F3C3650E76E36374D363D56EE6E404C6E9492C3CCC69A226E010
:205BC00005A4E74A3CC1BEC0D92450045D492BF89705FA522954FED4575A6128D99FDD5A36
:205BE0002FE9B9FD22CCB1D92DEF32FF4062D655502C2BA42DB5D2F63AACEF0604F22CF65D
:205C0000F9FD31D403BCE390AEEA4670B4F750023D5E18605326CA50A12700266359420971
:205C20004C2F6358A05BB9598FED391B1495672249AB650ED8165F0D142A9B683DD245E2E7
:205C400039B91A2F4132C6F9F3A5971519966CBC6F456DB55AE5AB30B5F64C9D1715B4D97F
:205C600018570CAA9C1D72C09605B76FAD6CDBE73C992A9FF0CC72EBB503E20E0BE6ED45F6
:205C800037B8EBAECA579703A2B790FD05EBDD40546F5E92B5451AA94906F349EAC321F80D
:205CA000DA556CC6C9C654EAB0B364431C6AF1EDB9260DA5FC13B242F79B7629DF6BB34F37
:205CC00010D598C4BC1BEE360AFDC210DDB00365255CCBD63315CBA2B7004DC90AFE4B3291
:205CE00049D49C7873289E1C9E72F4777706B3FE7028C4DF46AFE105E91D2794F623E4762B
:205D00005B24F99AC617CF6727A39B20C00DDAC7545752512B03763B1E429C72E546111B79
:205D2000CC6152C766D8EE6E1D6723F200B0A0A95CBDBC37C3C43B2312167472DF2F1F6461
:205D4000F464CF269AE6A9265511569B0D55C70D9DA4B3E89B18C3F354EFCF4535B4FB9505
:205D6000CBF544D408BE3CA12A464F38540090A0AA43D66B4E2501A2FB295BD0B590338E94
:205D8000B90ECA488C2F028E9620938A8F4E174BCF0D41D6EF1E2FC957AC922290B15ADEA5
:205DA00098C0112096329CE8D3AC2EC5E526E2CEBF1D539916EAADB76B992F1F41A3432913
:205DC000510A549916325BCD96FEE6AE4B5DE7C74A331429B9B6C79DCE1022DA239C2565DD
:205DE0003DCE5A99F9B1205BFD43379FCED2DA4CA54C5CC835712D170814EE3CBEE36B054E
:205E00004148D00630D0F4EFEABB42F16BC2EA281C500BCAFD09A920FC3D3EED9C07335F80
:205E2000C09E196C4596E8602BE2B3E29821D4D392F35C04462869A05A09C367F6EEF32674
:205E40006BF82DEEB21EC7C1671357E939E99E8CC2F05C2A4D51AA3DDE3ED5FBA433FCCF1B
:205E600065D5B1DA45A6C734E6EB1050FC1C9616E757A21EC7F896E4DAACDD36092423C59D
:205E8000D04BE9C73CC1AB50DBD6F7403B5046C8E20B0E221EE9A14440BCBCC5C770C3E45A
:205EA0009A993109D6982776B72B42653E069D0DC1CDCDA2C6F3C5A22B18DE1540D4FF3A53
:205EC00071234FC90CCD1DCF6CDAADA7A742EF2521A6D1A0BF512627FE45E50E275B0FA6B8
:205EE000B9C534A0C0CF7844C82C03239A5944E49A0FAEC62CBA4C6DCFCA3D593F05BC15D0
:205F0000C315D0BCE3EA1F33B1E5C703460C060712BE395694636AE20645F5696CD955C09A
:205F2000F0148C98085611B6434C0CD428A43B4930584123B1572694019AF5DA66B5C28ED2
:205F4000E42804EEB709DD71DFC756003123FE2E6194CF27DBD070CD0859100F1860D223F9
:205F60000DA25C2AF4EFF5E81AAB0DF4D0BB2F1F2115E6AC3AE9FC967395DED3B1F11FB1E5
:205F8000C871A140C4C54A430D184E6FB89040BC686BFB0C34FB95286BB7DA963A103F5A70
:205FA000072BE72B8AF3C0F5013D4524B55D271A1308B0DBA5628B98953001BB265AA428D4
:205FC00053B566BFEA4A44549865DD56DC0FA852AB9D673488F0569C2AF69F27BE3AEA425C
:205FE000B49B105DC4D56F509838DE1963ADD16F8FA05A0DC16A12BD496FBFE3E1372BC683
:20600000674F15FD6B1E5BC2329742E234A1A9107702A2E5091C60FBC160A55C0C59AED30F
:206020001E9B449EB372D5239FC81E0BCF5465B6484C366CE9A4AACB3736E0244A99696E77
:206040006F47F4ECAF1134F852DD25C74E6FAA1D50EA939BE906A0E8FA2FC258109AA93278
:20606000BCBE606A0759D39417AD320EEFE7D63A9A64B5270F4629D22B59120732D78CB41B
:206080000069C195E458E868510D34BA0EE1040CDDD6E6CAA90BF7A544A8FB4E3A5E2A219F
:2060A00031B8D2D339E273C29E4EC6771BE5FB5A12F9A2290CFF569E1B5AA4A5FED7A84232
:2060C000A964D6C625380B0CE5CECD170DC4A9A2D21835A06022BE193C9453F9A72DBB43EA
:2060E000BF62BAFF3CA542005D0734D2B3CAF145D8ECBF2F5C8C9864CF09FE0F5052B4B500
:2061000095CC3C2DEB26553C4FD3C2E7399B4CA227C91DEF5A63F4EDFCA2E2BC54D82B4D0C
:206120008841E36409935769C3A0ADE7FB12F76D9F519D03F840FDEE2C71F734A525FABC90
:20614000C96F6D2AFE95FB95DC5FA3FC1339FAFEEE07A24A64BDC1AAD768950E992ECC70DD
:20616000B307C54CFEEE4F2314702AC4FD45E706EE52FA402856D0B11596ADE5234798B0ED
:206180002A9E105797F1561C536B6322BCE1E1C0B25EA766CC517026EFFE521E31C5B06022
:2061A000C207A9D32CD48F293DFB16D924D90FF791A5DF9D346627245298F861ACE1B30C92
:2061C000BDA79BB11365D21721476765E793B9FD16E0D105F6B36D3F161B2A9B03A7C4C104
:2061E000004422F0D66BEBD3BD9BE808BE2747D2AF5A66F397AA1EF6BD432EC2FF53A7382C
:20620000421D93C20D906B1692EACDF162C034956B67CB71FF6A08E2C62D35A8AF16C1E9E7
:206220009FCB265560E39361CA25AB4192684B9A05AC9958B89230420B99F4744B24CCC320
:2062400045FEF738E69DD105D0A0C60FA6B3EFFE3324F5ED336E3C1D2FBBB61206CB2DB352
:20626000933C8E110C16E9B556B944B0C00D0D2E4FEE1296A6496F4C62F2BDF51A52058F50
:206280001DCD35A3663232DE9E3B3B1A020C9F40A813AB75B66301325FC0F142A408A61B93
:2062A000EB2A1B03A2A60FB43813A294982B4D30E2FA352271B4C331E43CCA08F26BFE73D3
:2062C0000A0E0A16C759FBC2BB49F05696F2FC56FAF5DB1AEF302542E555200693FFF30630
:2062E00090AF0DB616D790C564E70AF9F0E906929EA3100E0B270C9B3EF688FCB306AFDF64
:20630000902FC3503231404B5CA9FE1931490804DF0F00FA2416F6224CC6640DB2D9100DB6
:206320000AC1C262A7A3FF5DF403B5091B0CA925FB5737D4AA95442C6BBECCF9BDFB5CF51B
:2063400009234B0310AB16560B4A9E90AD3D5C2A391FCA8FCA4EE5573638E0BC961E4EF7A1
:20636000FEB16ED502EE90D5024021ADB9E2723E95D632DC0FB818341B2471C79BD7A2184C
:20638000E9F6A8A5F353C2CC6300DD8F0FF7EF5EC0FD1652E81C221D1310E5BF23C94ECDA5
:2063A0000051F0201A8E3BC5AF155DC56D5CE0AE1A21CA5F2BB31905E5969C1456ADB83918
:2063C000B5354772BAC747D1AC90F4C76626FBAB15EE9B99F6EC0012679E211A0C7298B621
:2063E000F9DADCD54433FCFDF8C9C75427C4BDC0F0580769E1B49A4DB7F014EC75AAD54551
:20640000036EBFFC740E0FBEC1CD9AFBD760F73194A0E23CEC6EBFC04766C7BEFF5296211A
:20642000D1CDCC12E4EE17F3492FC3C54270B09766A92E0DF9CFB8ECE20121E60299D228D6
:20644000F6D5B11864ACCB92D535EBD53467D807E1572755B64E89381740CF530A9192CF09
:20646000AE34698902458BE616A1638BBC58D0C71DB70FA6AE650F57FE54274EEE15978D50
:20648000960A4E083D1B0C9A3A34ED3AE6E02D6EC06CAD00EC4C98DBE6C21954B1CA53E1CA
:2064A0004A9434A53FFACFD8C59707B8ED47992020EA63A1CA4927E0DF38685ECFDA70031C
:2064C000C60E63A6225130CCAC3522142DFA580A070969D97070AABB52D659EF6D642FE9E0
:2064E000966E92B525B10BE6E76F2E31DC4424A465ABEB1CD4B261C7FE955B3E29D86AF49D
:20650000AF9DABD1A992FBE9342A5DE15602DCDC8D145D2A4F91916212BC8FEFAF97DD2856
:20652000DEC968E82D9E405DD13E47F6BD5A334221B5C03F2ADD1F62650036584B1FDA0987
:20654000AB9FC7DC19AD0BE8DBDB324BA51D9D08B15D2AAB24D5C5963B96D618C4C1151457
:20656000485C20374CB2FA251F2A37E86356262C323EF04560A8996228B0E52B61B15D98F9
:206580005940C9A31FB828964AD3B1D1263EFF3BE24552E8036EC61EA165C42861B90E480C
:2065A000300061354429F8EED9AD0B6E8B08FA6B2DFAF229B35BE8BFBD41DF02FD2CDCBA36
:2065C000293BE920BD5898469FD2AFC58BE7F6FA6469449D3A33C02652B3F4D4D71E4C30D5
:2065E000A2C991999C8EEB62A90DAD38C06DADB7D9BFF738AC9CAEDED1D62DB30A46A695B6
:20660000B0914D4C3342A10223155BFAAC1698916A7018A5C25DB2D3DF6932325CA9D6E16D
:2066200034EDD40460F05ADC1CD8580ED25416590E610B59FB28FE348E31F170F2A7DBF937
:206640006722636D495601D66747FC946BDFD2376C0032E821D8150338E09831A72ED913A1
:206660002D8D1319AF3C5FB0B29ED6D89DDCE82369616CE8C0D701432D5BCA4AF96C0CFCB6
:206680003436964E4DFF30C9C044168FF331DDACFAAA391F5C48E41A6BC06DF74168F91032
:2066A000CB11C65E9BC1E6000FE9384C16DC5309B11C6F0F41FA9BCFBEA81C31B6F4A4508D
:2066C000DCCFDA96254EE0EE04ECD335B8269EDB39121D0BC14432183EBBCB3162EA2D19C6
:2066E0006F30FBC276A8339AFA9BCDB006664C52CF07F87622EF5726FC9644D32574EADD5C
:2067000064C7275C5CEE1DFA446230F81DD4952235B827CF0515566DEE53F21E4F7108E338
:20672000EC2CAC99663B1EA4C64B6EC7E9F840E727146A266A24739849F01AF367561D5D6A
:20674000335B6470EAD95CF355C45E6BFDE32F30274C3E543DC6EB6AD466A55A0726CE15FE
:206760009516422B270C93289B119360C4C806501A56CBCD2BF14A47A495BFF615ACF85DD9
:206780005E056EFEA8450ACBB05D9568EBE9C161968E9C8ABEB9C0070261EE540992B513D8
:2067A000DFB3A5E3E69CAFA4E6F355924C4FD8ADF8EFA0E1E0613C0523465C55620298C941
:2067C0003EB90FF63138D24741D2BFFF184B18CE11E7C512A66311C5FA5BD65B9813B391FE
:2067E00031C9E88F616FA3BBF89DA7BA8E5CAD1517563FC2A43C2F564D7360BD3805EEBCC1
:20680000F01C6C3659DAF093DEDFBD6C0A9C20616B4A10EE672E24AFEF223093301EBEE725
:20682000EFE82349BEC814B0B0EBED4411CA280A169A0DAE18BADFEAFA4404B2CAAF95C228
:20684000DDD6B009BC1B5510EC45CA7521CF1B6C9521ABA3F03E0E9ACC923EB11EEDC8901F
:206860006843C524C40B39A6902B08D0F5B7BA9D4C73F9C36104609C064031B9D5B1A135D8
:206880005D41BDC94DA2D39D5C1E1F432A724443A8BF40E491DFB1E5B6AF5718AD9F20990C
:2068A000C2B420019F0091237015E0DC945C0D2408BBE0434019A9483738B398E054E02D61
:2068C00017A75FC2232916FCFA0D152AD5ADD5BABC65E9DD40F767A6D4D3B7E16A54AA1C36
:2068E000A1F741B76F6E481C6FBFB61804C46CA32D4AC6C83A4FA91CB86D9D212E8B35CE02
:2069000009636C314CAE45B7FD95B49148E76B250FF516E303EBF85A04A1E5F665C68DDA93
